:020000040800F2
:10000000B008002081010008270F0008250F000814
:1000100000000000000000000000000000000000E0
:100020000000000000000000000000002B0F00088E
:100030000000000000000000290F00082D0F00083C
:1000400093010008000000009301000893010008DC
:100050009301000893010008930100089301000830
:1000600000000000930100089301000893010008BC
:1000700093010008930100089301000800000000AC
:100080009301000800000000000000009301000838
:10009000000000009301000893010008930100088C
:1000A00093010008930100089301000893010008E0
:1000B00093010008000000000000000000000000A4
:1000C00000F002F800F04CF812A030C808382418EC
:1000D0002D18AC4201D100F043F80FCCA246AB463C
:1000E0000CA730CF2D1B083F3F197C427F1E544484
:1000F0002D090426F441641EAC4201D300F030F80F
:100100000126334200D0FB1A3343984754465D46DC
:10011000DFE700006822000088220000103A02D3C6
:1001200078C878C1FAD8520701D330C830C101D598
:1001300004680C6070470000704700000023002432
:1001400000250026103A01D378C1FBD8520700D30E
:1001500030C100D50B6070471FB51FBD10B510BD75
:1001600000F0E1F91146FFF7F7FF01F0CDFB00F0D9
:10017000F9F903B4FFF7F2FF03BC00F0FBF900004C
:100180000748804707480047FEE7FEE7FEE7FEE72F
:10019000FEE7FEE704480549054A064B70470000A4
:1001A000350F0008C1000008B0020020B008002090
:1001B000B0040020B004002001E004C0091F04299D
:1001C000FBD28B0701D50280801CC90700D00270CA
:1001D000704700290BD0C30702D00270401C491E93
:1001E000022904D3830702D50280801C891EE3E71D
:1001F0000022EEE70022DFE77047704770470000FB
:10020000F0B5FF252D04C609C209FF2704462E407C
:100210000137CB093E4348402A402B400746002A7D
:100220006BD0002B69D0AA4267D0AB4265D00028C2
:1002300000DA32460125ED0529432C43090220024C
:10024000090AD21A4B0C7F24E31A434C000A7C445F
:10025000E35C7D242404121914145B00A218884264
:1002600001D3521C00E0400049420C465C4324117B
:100270005C43DB016415E318040A5C43C502200DEE
:100280000C4644436419250A5D432303EC0C0D46D8
:10029000654300030019EB184C42A34201D35B18DD
:1002A000401CD4052018002B07D05B00C91804D3CC
:1002B000401C002901D1400840003F2189048A42A6
:1002C00009D3002A08DC1106090F04D003214907CD
:1002D0004018C00FC007F0BD012241001206891866
:1002E0007F2252069142F6D205214907C84201D524
:1002F0009010F0BDFF20C005F0BD002F00DA32469F
:100300001648AA4207D2AB4205D21902090E17D0ED
:10031000F80FC007F0BDFF2563002D06AB42F9D8EA
:100320004900A942F6D8AB4201D1A942F2D0A94274
:1003300001D1002101E061004908D0050843F0BD6A
:100340001102090EFBD0FF200243D005F0BD0A4682
:100350000146104654E700008A2000000000C07FDC
:1003600010B501469E240002CA15A307002A02D038
:100370001843002A04DBA21A002A0CDDD04010BD6D
:100380001206120E01D140004008A21A03D4D04038
:1003900040420028F3DDFF2248001206904201D9B6
:1003A000002010BDC817C043584010BD0102C2153F
:1003B00004D00123DB071943002A0ADB9E239A1A83
:1003C00002D40846D0407047FF22410012069142F5
:1003D00001D900207047C017C04370471F22030C8B
:1003E00002D10F2200041CD0030E01D10002083AF2
:1003F000030F01D10001121F830F01D18000921E53
:10040000002801DB4000521ED2055118021251187B
:100410001922904004D3491C002801D14908490001
:1004200008467047C10FC90700D040420122920719
:100430001143D3E701218907D0E710B500F04CF84C
:10044000006810BD10B5044600F046F8046010BD09
:10045000C10D10B50906090E2ED0FF2931D07E2915
:100460002DD319D0962916D2024675398A4005D067
:10047000002402468A4003D3012302E00124F8E766
:1004800000230222CA41511E8843002B03D080184A
:10049000002C00D0904310BD0121420201D1012265
:1004A00000E00022C00FC0070029F4D0002AF2D1DA
:1004B0007F21C905084310BDC00FC00710BD002132
:1004C000EFE74102FAD0014810BD00000000C07FF4
:1004D00000487047100000200048704710000020BE
:1004E00010B5FF22C30D134009D05A4007D09142E6
:1004F00005DA5C42A14202DDC905081810BDC40F2F
:10050000E407002B06D0002A06D0002902DBFF20DA
:10051000C0050443204610BD4102FCD0004810BD78
:100520000000C07F70477546FFF7D2FFAE4605005A
:1005300069465346C008C000854618B020B5FFF78D
:1005400029FE60BCB64600260027C0C5C0C5C0C590
:10055000C0C5C0C5C0C5C0C5C0C5403D49084900EB
:100560008D46704710B50446C046C0462046FFF78A
:1005700000FE10BD01491820ABBEFEE726000200B8
:10058000F0B58CB00A900B910968002900D1C2E047
:1005900062480A9A824201D0052000E003200090C0
:1005A0000A9820300190002308931D46099310E01B
:1005B0000A4332605B1C0B9801680846D840099AD0
:1005C00008320992089A121D0892AD1C002800D129
:1005D000A1E0012006469E403140EBD007930390F6
:1005E00004910A9A03242046A840C1432B460B9845
:1005F000456828462040471E012F06910295059325
:100600000FD894680C400B99CF689F4027439760A0
:10061000EC06E40F079B9C405768B743274357609D
:1006200005E00328079B02D12046029D1EE00A9F99
:10063000FC6806990C400B9A966805998E402643F3
:10064000FE600228029D11D11C20089908400F224B
:100650008240DC08A40001990E5996430B9F3A6929
:10066000824032430A517D6803202840059B984010
:100670000A9A146806990C4004431460A8031D46A6
:10068000079B800F0499039F94D003201A4682434E
:1006900023488018026E052424070A9EA6420AD029
:1006A000214C0A9EA64207D0204C0A9EA642009FDB
:1006B00002D1022700E000271824099E34400F26AB
:1006C000A640B2436030A740174307601448026851
:1006D0000B984068C40201D50A4300E08A43114EDA
:1006E0000F4C22606268840201D50A4300E08A430D
:1006F0000B4C62607268840305D50A4372603268ED
:10070000C00306D554E78A4372603268C00300D53F
:100710004EE78A434DE70CB0F0BDC046000C0050D8
:1007200000180240801802400004005000080050E9
:10073000002A02D018228150704728228150704729
:10074000054800687047C0461E48007802490A689C
:10075000101808607047C046A802002010B5012498
:100760002002CA490A6802430A60032000F00AF81E
:10077000002801D0204610BD00F026F800242046B5
:1007800010BDC04670B50F4E31780124002916D037
:1007900005467D20C00001F019F90146C1480068F6
:1007A00001F014F900F0A4FB032D08D8002806D1AD
:1007B0000024E0432946224600F01CF875602046DC
:1007C00070BDC0460000002082B009484168012287
:1007D000114341604168114001910199110702687C
:1007E0000A430260006808400090009802B0704719
:1007F0003C100240002805D40322034693430A4AD2
:100800009A1803E00C220240064BD2188007C00E53
:100810008901C9B28140FF2383401068984308438F
:100820001060704714ED00E000E400E0F0B581B026
:100830000146032460021B4D2A46143A1368834381
:100840000B43136001277A020020914224D195497D
:1008500009682A6852051FD5BE0206224A4312497A
:100860000090104601F0B2F801460098791A02296A
:1008700014D02A6832420FD001290FD02A683242A0
:100880000AD000290AD02A68324205D0091D03295E
:1008900004D02A683242EAD101B0F0BD204601B04E
:1008A000F0BDC0461470004040420F00F0B583B068
:1008B0000D4601460120002961D002910190734844
:1008C000006807273840854215D970490868B84341
:1008D000284308606E4CFFF733FF06466B480068FC
:1008E0003840A84207D0FFF72BFF801BA042F5D964
:1008F000032003B0F0BD029B18688107654C0CD53E
:10090000410703D5390322680A4322600F210902F7
:1009100022688A43996811432160C0071AD15B4855
:100920000068384085422CD258490868B8432843AB
:100930000860574CFFF704FF0646544800683840EB
:10094000A8421ED0FFF7FCFE801BA042F5D9032071
:1009500003B0F0BD596803296AD8880001A2125873
:100960000198974675090008250A0008110A000831
:100970001D0A00082246083A126852055CD403B0EA
:10098000F0BD029A10784007424C05D53803216823
:100990008143D0680843206020688006400F1FD044
:1009A000226838210A403C48082A20D022680A40A0
:1009B000102A5AD1616803220A40032A00D037481E
:1009C00061684906490F491C01F000F86168490453
:1009D000490E48436168490F491C00F0F7FF06E0E3
:1009E0002046083800688004410F2C48C840216820
:1009F00089093C220A402A4989581F220A40D040CE
:100A00002849086028480068FFF7BCFE03B0F0BD25
:100A10002246083A12689201B1D50DE0A26D920704
:100A2000ADD509E02246083A12689203A7D503E043
:100A3000606D80070198A2D52068B8430843206004
:100A4000FFF77EFE06462068382101400298406884
:100A5000C000814200D162E7FFF772FE801B0C49A3
:100A60008842F0D9032003B0F0BD20680840202858
:100A700002D10120C003BAE720680840182801D03D
:100A80000020B4E77D200002B1E7C046002002400C
:100A9000881300000810024000127A000024F400BD
:100AA0003C2300080800002004000020F0B587B0B7
:100AB00004460120002C00D1F0E104902078C0070A
:100AC000F74E05943FD12078800762D405980078CE
:100AD000000700D590E0059A1078400700D5A2E005
:100AE000D469002C00D1C0E1B06838210140102940
:100AF00000D00EE1012C00D1A2E0F06803210140FA
:100B0000059B1A6A914200D09AE0702101405A6A0E
:100B1000914200D094E07F21090201409A6A1202BA
:100B2000914200D08CE01F2149040140DA6A9142D1
:100B300000D085E0072149070840196B88420498D6
:100B400000D0ABE191E1B068382202401021514061
:100B5000F368032004469C430B1959425941082A63
:100B600058D0002956D13168059A5368012467048A
:100B700022049342039008D005252D04AB4200D0F7
:100B8000F9E0A30419433160316811433160059CD9
:100B9000FAE0B0683821014010204840F268032490
:100BA000224002235340C0184242424101208702A2
:100BB000002948D0002A46D103943168059CE26898
:100BC000002A00D1EFE00722D202914322690A43B2
:100BD00032600002316801433160FFF7B1FD054624
:100BE0003068384200D0F0E0FFF7AAFD401B022831
:100BF000F6D9039807B0F0BDB06838210140182934
:100C00004BD1306E800700D465E7059880690028D5
:100C100016D060E730688003059C00D453E7606815
:100C200000280DD04FE7B0683821014020294BD172
:100C3000F06D800700D453E79068002800D04FE79C
:100C4000049807B0F0BD32683A42059B03D0DA68D9
:100C5000002A00D122E105467F200002726882430B
:100C6000586900021043706000290DD10720C002AE
:100C70003168814318690843306030688004400F50
:100C80009449C1409448016094480068FFF77AFD98
:100C90000028284600D001E118E7306E05998969DF
:100CA000002900D19AE0012108433066FFF748FD92
:100CB0000546306E800700D50DE7FFF741FD411B6B
:100CC00003200229F5D9E9E0012003900107F06B28
:100CD0000840029006D1F06B0843F063F06B0840C7
:100CE0000690069801917E4F3868C00533D403986A
:100CF0000402386820433860FFF722FD0546386853
:100D0000204228D1FFF71CFD411B03200229F6D900
:100D1000C4E001210A0630680392904330600491D8
:100D20004F06FFF70DFD0546022C09D13068384209
:100D300074D0FFF705FD411B03200229F6D9ADE071
:100D40003068384200D18CE0FFF7FAFC411B0320E9
:100D50000229F5D9A2E0F06D05998968012906D02C
:100D6000052900D084E004210843F065F06D039963
:100D70000843F06585E091433160A0043168814308
:100D80003160002B059C3AD0FFF7DAFC054630684D
:100D9000384200D097E6FFF7D3FC401B6428F6D911
:100DA000039807B0F0BD000281433160FFF7C8FC33
:100DB00005463068384200D188E6FFF7C1FC401B89
:100DC0000228F6D9039807B0F0BD7F2000027168B1
:100DD0008143606900020843706077E6012188431F
:100DE0003066FFF7ADFC0546306E800700D472E632
:100DF000FFF7A6FC411B03200229F5D94EE0FFF7BF
:100E00009FFC05463068384200D15CE6FFF798FC4D
:100E1000401B6428F6D9039807B0F0BDF068334949
:100E20000140059D20353DCD084310431902014383
:100E300021432943F16030680399084330600498E6
:100E40000007F1680143F160FFF77AFC044630685F
:100E500038420AD1FFF774FC011B03200229F6D99E
:100E60001CE0F06820490140F160002007B0F0BDAF
:100E7000039A9043F065F06D04229043F0650029D9
:100E800010D0184CFFF75CFC0546F06D800717D4B6
:100E9000FFF756FC411B0320A142F6D907B0F0BD75
:100EA000001002400F4CFFF74BFC0546F06D800729
:100EB00006D5FFF745FC411B0320A142F6D9EDE71B
:100EC00002980028059A00D00AE6F06B0199884341
:100ED000F06305E60024F400080000200400002070
:100EE0000070004088130000FCFFFEEF8C80C11FE3
:100EF000401E010E01D0012070470749074A50608B
:100F0000074803680B400321890759180160002036
:100F10009060072111607047FFFFFF0010E000E0C4
:100F200020ED00E0FEE7FEE77047704780B5FFF771
:100F30000BFC80BD7047000080B5054800680028A4
:100F400001D0002080BD03A000F0D8FCFEE7C04621
:100F5000C00000204572726F723A2055736572208E
:100F60006D75737420737065636966792074686544
:100F70002064656661756C7420636F6E74726F6C4B
:100F80006C6572206E616E6F206865616465722E9B
:100F90000D0A0000022101757047000010B50446DB
:100FA00001200021A062E16220632175E1602161DE
:100FB000054803C41834204600F0A6F91421204641
:100FC00000F092FA10BDC0464C544347C1617047CF
:100FD00010B504468068401CA060206B002805D036
:100FE000207D032802D3204600F059F8207D0628F2
:100FF00023D8C0467844007940008744031E230D5F
:101000002D351700204600F048F8204600F0A0F8E3
:1010100000282FD0022025E0204600F03EF8204690
:1010200000F098F8002825D004201BE0204600F0AE
:1010300034F8204600F088F81CE0204600F02DF837
:1010400006200FE0A06A002804D0204600F02AF80D
:1010500000280FD0032005E0204600F07DF800288E
:1010600008D00520207505E0204600F06FF82046E6
:1010700000F014F8216A606A491C81420A4603D2D2
:101080002262814204D210BD002222628142FAD340
:10109000204600F001F810BD7047704770470020EF
:1010A0007047000070B5634C217D0020022949D1B2
:1010B0000F2149016258002A12D0032A1BD80D21A2
:1010C0004901615800293DD0910009192922D20017
:1010D0008D5867229200A358002D21D4054621E0A7
:1010E0000D214901615800292CD067218900611820
:1010F000054608461CE00121042A22D10D22520196
:10110000A258002A1ED06720800020585B2292003F
:10111000A35817252D016559002D10D4C0180FE0D4
:1011200005465B422720C0000E589B190B50A018A3
:1011300000F091F92046FFF7B1FF284670BD181A5C
:10114000A050084670BDC046002070470020704780
:10115000002070470020704701207047F0B595B01F
:10116000334D284600F035F92E4630363046149679
:1011700000F051F92F4800F0FDF82C4618342046B5
:1011800000F0B9F82C492D4A204600F097F90127C4
:101190002B4A2846394600F0FBFA0295294801906F
:1011A00000970525284B304624492A4600F028FBA5
:1011B000264B1393264812901190FE0510967F201F
:1011C00040060F9018200E9010200D900C9521488D
:1011D0000B9021480A900996204808900021079119
:1011E0001F4A06920322D2050592049603900291AB
:1011F0001C4801901C4800900E4D28462146149A28
:1012000000F06CFA7920810018A000F077FB2846E6
:1012100000F064F9E4202F50E8202E50DC202F50FD
:10122000034868632846FFF7B5FE15B0F0BDC04619
:1012300070000020C40000200000A04000401C46B8
:10124000FFFF01000000A04100803B451027000087
:1012500099991900CCCC0C003433F3FF000080FFC7
:10126000894100005C8F0200CCCCCC00504D534D26
:1012700020534552564F2073747275637420686111
:1012800073206265656E20696E697465642C2073D5
:10129000697A65203A25640D0A00000010B5002423
:1012A00004604460846044638463C46304640C30F9
:1012B00000F02FF8204610BD002101221206016027
:1012C00041608160C1600261416108467047002150
:1012D0001022016041608160C260026141618161F0
:1012E000C16101221206026242628262C16201632E
:1012F00041630846704710B500240460446008301C
:1013000000F078F8204610BD0021016041600846D9
:10131000704780B52821FEF76DFF002080BD0021B9
:10132000012212060260416008467047B0B50446CB
:101330000125290602C05C21FEF75CFF20466030D3
:1013400000F00AF82046803000F006F8A020255072
:10135000A03465600020B0BD002101221206FF23E9
:101360001B0606C0016041608360C260016141618B
:101370000846704710B50446FFF710FE20463C3083
:10138000FFF7D4FF2046EC3000F056F82520C000CF
:101390002018FFF79CFF0B2040012018FFF78CFF5F
:1013A0002F20C000201800F01CF8672080002018B3
:1013B000FFF774FF0F20410100206050092149010F
:1013C0006050DC220123A3506118DC34A360486024
:1013D00010BD0121416101820021C16001604160B5
:1013E0007047002101604160816041618161C1619C
:1013F0000846704700210122120606C001604160C4
:1014000008467047002101221206FF231B060AC06E
:1014100002600846704710B5044600202060012194
:101420000906A060E16020461030FFF778FF18340D
:101430002046FFF769FF10BD10B504462030FFF7C6
:1014400063FF20462830FFF7DDFF2046FFF784FFCB
:10145000002010BD70470021C16301640163416039
:10146000C16001614161816170470000B0B504460F
:101470004D680C3000F03CF80649284600F062FE4A
:10148000FEF794FF7D21C900884200D808466063BA
:101490000020B0BD000020410161C2600099816060
:1014A0004360002070470162426141628261816253
:1014B000C26100990161C36000207047B0B582B07D
:1014C0000D460024009408307F21CB0511462A46A2
:1014D00000F065F9204602B0B0BD00000149086087
:1014E00000207047C00000204160002070470000CD
:1014F000F0B587B00D4606904868014600F0DCFD67
:10150000EC68214600F01EFE564900F01BFEA9685B
:10151000FEF776FE059000F00DFD3F2109060190D3
:1015200000F010FE2146FEF76BFE06467F20C40544
:101530003046214600F0C0FD074603942046314660
:1015400000F064FE3946FEF75BFE9721CC0521468C
:1015500000F0F8FDFEF704FF0646059800F02EFCAB
:1015600006994E610E4603218907029000F0EAFDBC
:1015700004973946FEF744FE0594214600F0E2FD4B
:10158000FEF7EEFE30612878002842D0022829D0EC
:10159000012864D10298039900F08EFD064629695E
:1015A000039100F0CFFD0446049F3846394600F011
:1015B00083FD01462046FEF723FE059D294600F0E7
:1015C000C1FDFEF7CDFE0446069884610120C107E7
:1015D00003984140304600F0B5FD3946FEF710FE55
:1015E000294635E02969019800F0ACFD04460498CD
:1015F000014600F061FD01462046FEF701FE059917
:1016000000F0A0FDFEF7ACFE0446069884610020C1
:1016100022E00398029900F0F9FD296900F092FD9B
:101620000646049D2846294600F046FD0146304600
:10163000FEF7E6FD059F394600F084FDFEF790FEBB
:1016400004460698846130462946FEF7D9FD39469E
:1016500000F078FDFEF784FE0699C8610C62002058
:1016600007B0F0BDDA0FC940B0B50D4604461046CC
:10167000114600F021FD074900F064FD2946FEF700
:10168000BFFD9721C90500F05DFDFEF769FE2060F2
:101690000020B0BDDA0F4940F0B585B00493039245
:1016A0000E4607460B9C01940A9D0095603000F0A1
:1016B0000CF800950194803738463146039A049B14
:1016C00000F003F8002005B0F0BD10B5039C4461A4
:1016D000029C001D1EC0002010BD000070B58AB025
:1016E00015460E4604461946FFF770FC6663A5636F
:1016F000129801901198009020463C300EAB0ECB12
:10170000FFF7CAFF1A98049019980390189802904E
:1017100017980190169800902046EC3013AB0ECB32
:1017200000F0B4F81C9E00962520C00020181D99DA
:101730001E9A1B9D2B46FFF7B6FE00960B2040011C
:1017400020181F99209A2B46FFF7A6FE2F20C000D5
:1017500020180025219A294600F01DF805AE3570A5
:10176000094806907F20C005099008480890E06964
:10177000FEF760FE07906720800020183146FFF7D3
:1017800075FE28460AB070BD0000A041F4FD343F4C
:10179000426101827047C260016100207047F0B56C
:1017A00083B01E4600930292019104469720C5051E
:1017B000089F3846294600F0C5FCFEF7D1FD2060A1
:1017C0003046294600F0BEFCFEF7CAFD6060019875
:1017D0000299FEF715FD06460098394600F016FD01
:1017E0003146FEF70DFD294600F0ACFCFEF7B8FDD2
:1017F000E060002003B0F0BD4160826000207047CF
:10180000F0B583B015460F46044601931846FEF71F
:10181000A7FD1C4941430E0D1B490297384600F0B5
:1018200091FC0746B54200D335462846FEF702FE36
:10183000064638463146FEF7E3FC07460898FEF7B1
:10184000F9FD01463846FEF7DBFC0199FEF7D8FCAE
:101850009721C90500F076FCFEF782FDE060029852
:101860003146FEF7CDFC014620461030099AFFF7BD
:10187000FBFE204618302946FFF736FE0A986060C6
:1018800003B0F0BD8988000000007042F0B583B05D
:101890001C4615460E46074628300A990B9AFFF754
:1018A000ABFF384620300C99FFF71EFE09980190D7
:1018B00008980090384631462A462346FFF705FF30
:1018C000002003B0F0BD000000F01CF800F07DF82F
:1018D000FFF744FC00F017F800F013F8064C2068FE
:1018E000FFF72AFB00F00CF82068FFF771FB00F00F
:1018F0006BF8FFF7AFFDF5E7C00000200020704750
:10190000704770477047704792B0FEF727FF00247A
:101910000B940A940994089407940694012568028C
:10192000FEF784FF680711906804109008200F905C
:101930000E9402260D960C9640200A9009942802D7
:101940000890059605A8FFF7B1F8002803D0EFF33B
:10195000108072B6FEE7049403940720019002966B
:1019600001A83146FEF7A2FF002803D0EFF3108054
:1019700072B6FEE7099408940794069405941048FB
:1019800001683143016001683140019101990168AA
:10199000294301600068284001900198094E3046B3
:1019A00029462246FEF7C4FE08940794069505953D
:1019B00005A93046FEF7E4FDFFF786FFFEE7C046C7
:1019C00034100240000400507047704743088B42B7
:1019D0001AD3002203098B4279D3030A8B425ED3C8
:1019E000030B8B4242D3030C8B4227D30902FF2205
:1019F00012BA030C8B4202D31212090203D0030B5A
:101A00008B4233D31AE0D3E0411A8041401C704727
:101A100003460B4371D443088B42F5D300220309DC
:101A20008B4254D3030A8B4239D3030B8B421DD311
:101A3000030C8B4202D394466EE0090AC30B8B421F
:101A400001D3CB03C01A5241830B8B4201D38B03CA
:101A5000C01A5241430B8B4201D34B03C01A52416F
:101A6000030B8B4201D30B03C01A5241C30A8B42B2
:101A700001D3CB02C01A5241830A8B4201D38B029D
:101A8000C01A5241430A8B4201D34B02C01A524141
:101A9000030A8B4201D30B02C01A5241CDD2C309B3
:101AA0008B4201D3CB01C01A524183098B4201D32F
:101AB0008B01C01A524143098B4201D34B01C01A1A
:101AC000524103098B4201D30B01C01A5241C30892
:101AD0008B4201D3CB00C01A524183088B4201D301
:101AE0008B00C01A524143088B4201D34B00C01AED
:101AF0005241411A524110007047CA0F00D049426A
:101B0000031000D34042534000229C4603098B42FD
:101B10002DD3030A8B4212D38901FC2212BA030A85
:101B20008B420CD3890192118B4208D38901921107
:101B30008B4204D3890137D0921100E08909C3098F
:101B40008B4201D3CB01C01A524183098B4201D38E
:101B50008B01C01A524143098B4201D34B01C01A79
:101B6000524103098B4201D30B01C01A5241C308F1
:101B70008B4201D3CB00C01A524183088B4201D360
:101B80008B00C01A5241D9D243088B4201D34B007B
:101B9000C01A5241411A00D20146524110466346D2
:101BA0005B1000D34042704763465B1000D3404255
:101BB00001B50021004201D0C9430846C046C046D5
:101BC00002BDF0B4040C8BB2264682B25E430D0C0B
:101BD0001046370C584336048019002179411646C7
:101BE0006E43370C36048019794126466E438919B5
:101BF000F0BC70474100080200D004200A0E01D05A
:101C000001221043090EFF2901D1022108430128B6
:101C100000D10520704710B50121FEF761FC10BD11
:101C200010B500210846FEF7EBFA10BD5E2110B595
:101C3000C9430807FEF754FC10BD0000F0B50E467E
:101C400014465100FF22120687B0914203D31116A9
:101C5000316007B0F0BD01202502C0070543E00D4B
:101C60007838C206D20E2020871A6000000E78381D
:101C7000401181004D4878440B189C464358002A77
:101C800014D06046406893400146F84003436046E4
:101C9000806891408646F840014303916046714652
:101CA000C0689140F84001430F4603E06046416838
:101CB0000391876818462946FFF783FF0291049035
:101CC00029460398FFF77DFF039106903846294681
:101CD000FFF777FF0F460698029B3D18049A039979
:101CE000BD4201D2012700E000278818C019002F4B
:101CF00002D0884202D903E0884201D2012100E0EB
:101D0000002159180A4620329709C20C890652034D
:101D100040033760114301900846FEF783FB0290B1
:101D20000198FEF787FB1221C943FEF7D9FB01900A
:101D30002846FEF77FFB2521C943FEF7D1FB009023
:101D40000199029800F0B8F9009900F0B5F9012165
:101D5000C9024018050B2D032846029900F056FAD7
:101D6000019900F053FA009900F044FA104900F08C
:101D7000E9F900900F49284600F0E4F9009900F0D5
:101D80009BF900900C49284600F0DCF9009900F01E
:101D900093F9002C00DB5CE701210907C91B3160C6
:101DA0000121C907484007B0F0BD0000A2060000AD
:101DB000DB0FC92F22AAFD290000C92FF0B502466A
:101DC00004464E4B83B040006946984209D27321C5
:101DD0000906884202D20020C04300E000200090A3
:101DE00030E05000464B400898426CD245491046BE
:101DF00000F0A8F9FEF72CFB0746FEF7B1FA8007C2
:101E0000800F00904049384600F09CF901903F490E
:101E1000384600F097F906463D49384600F092F9F9
:101E200005463C49384600F08DF9214600F0E2F9BC
:101E3000294600F0EBF9314600F0E8F9019900F08D
:101E4000E5F9044625467F27009CFF05002C3EDB74
:101E5000E007314E294608461BD000F073F90746CB
:101E60002E4900F06FF92E4900F026F9394600F0AE
:101E700069F92C4900F020F9394600F063F9294648
:101E800000F060F9294600F017F9A10718D503B052
:101E9000F0BD00F057F90546234900F053F92349F6
:101EA00000F00AF9294600F04DF9214900F004F943
:101EB000294600F047F9394600F0FEF8A107E6D5BB
:101EC000704003B0F0BD1046FFF7B8FEB9E7FF2140
:101ED00068000906884202D2384603B0F0BD884245
:101EE00006D10120FEF7AEFAFFF79AFE03B0F0BD6F
:101EF0002846FFF790FE03B0F0BD0000B61F927EAB
:101F0000490E494683F9223F1A61342C0020A2333E
:101F100000A0FD390000C93F00000080336D4CB9BE
:101F2000DA82083CA0AA2ABEB93AB2BACA9F2A3DB0
:101F3000DDFFFFBEF0B502460446514B83B04000C2
:101F40006946984209D273210906884202D20020CC
:101F5000C04300E00020009030E05000494B4008B2
:101F600098426BD24849104600F0ECF8FEF770FA40
:101F70000746FEF7F5F98007800F00904349384681
:101F800000F0E0F801904249384600F0DBF80646E0
:101F90004049384600F0D6F805463F49384600F03B
:101FA000D1F8214600F026F9294600F02FF93146F4
:101FB00000F02CF9019900F029F904462546009C0F
:101FC000002C3FDBE007354E294608461AD000F0CA
:101FD000B9F80546324900F0B5F8324900F06CF81E
:101FE000294600F0AFF8304900F066F8294600F0C5
:101FF000A9F87F21C90500F05FF8A10700D570405E
:1020000003B0F0BD00F09EF80746284900F09AF8AA
:10201000274900F051F8394600F094F8254900F0BE
:102020004BF8394600F08EF8294600F08BF8294627
:1020300000F042F8A107E2D403B0F0BD1046FFF76C
:10204000FDFDBAE7FF2168000906884209D228464B
:10205000FFF7D0FD042801D1FFF7E8FD284603B0C3
:10206000F0BD884206D10120FEF7ECF9FFF7D8FD5C
:1020700003B0F0BD2846FFF7CEFD03B0F0BD000071
:10208000B61F927E490E494683F9223F1A61342CCD
:102090000020A23300A0FD390000C93F00000080ED
:1020A000B93AB2BACA9F2A3DDDFFFFBE336D4CB9C3
:1020B000DA82083CA0AA2ABE70B50125ED0704000B
:1020C0004C4020D4441A01D2001B0919C60D4B0004
:1020D000F2B2FF2A29D01B0E2CD000020C0228439A
:1020E0002C43D31ADC40051910D2280A02D3401C15
:1020F0006D0611D0761EF6058019FF2A00DA70BD34
:10210000C00DC00570BD694000F086F80120054390
:10211000C541521C761CE8E764089C40C901614037
:102120008900E7D10124A043E4E71B0E440200D05C
:10213000034870BD002AFCD1C00FC00770BD00BFAE
:102140000000C07F70B5420064414B005C41120E3C
:1021500039D01B0E38D0FF2A3CD0FF2B3AD0D218F2
:102160007F3A40024902400A490A4518ED0106003B
:102170004E43000A090A48430104731A4019190C16
:102180004318990F04D05B08012149075B1A521CC0
:10219000D80904D3401CF50301D19D0607D0FF2ABE
:1021A00008D2D50506D0E4072043401970BD0125AB
:1021B000A843F4E7002A01DCE00770BD2402FF20F9
:1021C0002043C00570BD1B0EFF2A03D0FF2B01D09A
:1021D000E00770BDFF2636064500B54206D84D0023
:1021E000B54203D8D218FF2A00D0E7E7004870BDF7
:1021F0000000C07F70B50125ED07684004004C4029
:1022000002D5694000F008F8FFF75CFF70B50125C2
:10221000ED0704004C4022D4441A02D26C40001B4B
:102220000919C60D4B00F2B2FF2A4BD01B0E50D03D
:1022300000020C02A8432C43D31ADC40051B05D531
:10224000AD0019D36D08761E521E37D0F605280A48
:1022500001D2801970BD70416D0603D070BD694018
:10226000FFF730FF9C4009026140490001D0401E49
:1022700070BD0124A04370BD6D081DD001202B0C42
:1022800001D12D0410302B0E01D12D0208302B0F5F
:1022900001D12D01001DAB0F01D1AD00801CEB0F52
:1022A00001D16D00401C361A121A6D00680AF5053E
:1022B0004019012A02DB70BD002070BDC036300A13
:1022C000C00770BD1B0E440201D1FF2B00D1024894
:1022D00070BD002AF0D070BD0000C07F8182838471
:1022E00085868788898B8C8D8E8F91929395969712
:1022F000999A9C9D9FA0A2A3A5A7A8AAACAEB0B294
:10230000B3B5B7B9BCBEC0C2C5C7C9CCCED1D4D78E
:10231000D9DCDFE2E6E9ECF0F3F7FAFE00000000BA
:102320006E83F9A22915444ED15727FCC0DD34F540
:10233000999562DB4190433CAB6351FE0000000085
:10234000000000000000000000000000000000008D
:10235000000000000000000000000000010000007C
:10236000020000000300000004000000060000005E
:10237000070000000800000009000000A02300087A
:1023800000000020100000001C010008B02300081D
:1023900010000020A00800003C0100080000000020
:1023A00001000000040000000024F4000000000010
:04000005080000C12E
:00000001FF
