:020000040800F2
:10000000D0110020D5020008775600083D520008A4
:1000100075560008652F0008A75D00080000000065
:100020000000000000000000000000007B560008F7
:100030001930000800000000795600087D560008BD
:10004000EF020008EF020008EF020008EF020008CC
:10005000EF020008EF020008EF020008EF020008BC
:10006000EF020008EF020008EF020008EF020008AC
:10007000EF020008EF020008EF020008EF0200089C
:10008000692F0008EF020008212E0008EF02000887
:10009000EF020008EF020008EF0200081B30000822
:1000A00025570008EF020008EF020008EF020008E1
:1000B000EF020008EF020008EF020008EF0200085C
:1000C000EF020008EF020008EF020008EF0200084C
:1000D000EF020008EF020008EF020008EF0200083C
:1000E000EF020008EF020008EF020008EF0200082C
:1000F000EF02000831570008EF020008EF02000885
:10010000EF020008EF020008EF020008EF0200080B
:10011000EF020008EF020008EF020008EF020008FB
:10012000EF020008EF020008EF020008EF020008EB
:10013000EF0200080000000000000000EF020008CD
:10014000EF020008EF020008EF020008EF020008CB
:10015000EF020008EF020008EF020008EF020008BB
:10016000EF020008EF020008EF020008EF020008AB
:10017000EF020008EF02000800000000000000008D
:10018000EF020008EF02000800F002F800F092F819
:100190000AA090E8000C82448344AAF10107DA45E2
:1001A00001D100F087F8AFF2090EBAE80F0013F0A2
:1001B000010F18BFFB1A43F0010318474CAC0000B5
:1001C0006CAC0000103A24BF78C878C1FAD8520746
:1001D00024BF30C830C144BF04680C6070470000C1
:1001E0000023002400250026103A28BF78C1FBD840
:1001F000520728BF30C148BF0B6070476E2900F01E
:100200007984702900F0BB8566290AF00E80652983
:100210000AF00B8067290AF0088061290AF007803C
:1002200003681B0A28BF41F08001692900F0268479
:10023000642900F02384752900F020846F2900F0E0
:100240004885782900F08785E92900F0E384E429CE
:1002500000F0E084F52900F0DD84EF2900F0458509
:10026000F82900F086850368DB0928BF41F080018A
:10027000632901F0A782732901F0AC82E32901F020
:10028000B782F32901F0BC82002070471FB509F046
:10029000BFFF01F077FB04000020002109F0B0FD52
:1002A000401C60600020002109F094FDE0601FBD4B
:1002B00010B510BD01F038FB1146FFF7E7FF09F05C
:1002C00047FA01F03FFC03B4FFF7F2FF03BC00F074
:1002D00061FB00000948804709480047FEE7FEE748
:1002E000FEE7FEE7FEE7FEE7FEE7FEE7FEE7FEE7E6
:1002F00004480549054A064B704700001557000899
:1003000089010008D00B0020D0110020D00D002062
:10031000D00D002053EA020C00F069802DE9F04B6B
:100320004FF00006002B1FBFB3FA83F503FA05F464
:1003300024FA05F65E4012BF1643B2FA82F502FABD
:1003400005F4C5F120051EBF22FA05FC44EA0C04A1
:10035000203556EA044C4FEA144418BF641C4FF091
:1003600000084FF00009904271EB030C39D30029CB
:1003700019BFB1FA81F701FA07F6B0FA80F700FA6F
:1003800007F6C7F120071EBF20FA07FC46EA0C0655
:100390002037B6FBF4FCA7EB0507103F07F01F0B57
:1003A000CBF120060CFA0BFB2CFA06F644BFB34641
:1003B0000026202FA4BF5E464FF0000B5BEA060C20
:1003C00008BF4FF0010B19EB0B09ABFB027C48EBAC
:1003D0000608C01B06FB02CC0BFB03CC71EB0C0127
:1003E000C1E70B46024641464846BDE8F08B13B5CF
:1003F0004FF000004FF00001AFF30080BDE81C405B
:10040000704700001CB50C46064B7B4469460090C3
:10041000204600F088FB04460020694600F096FB69
:1004200020461CBD3F07000010B5002000F083FDF2
:10043000FFF73EFFBDE81040012000F0ABBA2DE908
:10044000F04F9B4616464FF00109C1B02091009035
:10045000A9F1010920A85DF8295050F82900C5E04C
:100460004FEA6A0070432C185FEACA7100D1801B02
:100470005A46214627182846904700280EDD304668
:1004800046EA0501890765D022782978401E05F8DB
:10049000012B04F8011BF7D1AD1BA41B5A463946AA
:1004A00020469047002823DD5A4639462846904783
:1004B00000280EDD304646EA0501890751D03A781A
:1004C0002978401E05F8012B07F8011BF7D1AD1B59
:1004D000BF1B304646EA0401890749D03A782178A3
:1004E000401E04F8012B07F8011BF7D1A41BBF1B0A
:1004F000314646EA0402B81B920740D003782278BE
:10050000491E04F8013B00F8012BF7D12C46871B4C
:10051000B84634445A464146204690470028F8DB06
:100520005A464146BF1B384690470028F8DC304603
:1005300046EA0401A7424FEA81712ED931B33A78D5
:100540002178401E04F8012B07F8011BF7D1A41BEA
:10055000BF1BDEE722682968001F04C502C4F9D169
:100560009AE73A682968001F04C502C7F9D1AEE7C7
:100570003A682168001F04C402C7F9D1B6E70368CE
:100580002268091F08C404C0F9D1BFE73A6821688E
:10059000001F04C402C7F9D1D9E7E1B198F80020DF
:1005A0002178401E04F8012B08F8011BF6D1A21B8C
:1005B000501BB0FBF6F0401EAAEB0001491E88421A
:1005C00016DD0A2910DD20AB4DF8295043F829002B
:1005D00009F1010918E0D8F800202168001F04C4BF
:1005E00048F8041BF7D1E2E70A2810DD824637E716
:1005F0000A2807DD4DF8292020AA42F8291009F120
:100600000109F3E70A2902DD15468A4628E7B9F110
:10061000000F7FF41DAF41B0BDE8F08F2DE9F0472A
:1006200099460F460646140039D0002F37D00A2FBE
:1006300001D9FFF704FF7F1E354607FB04582CE065
:100640002F46254400E03F1BB74205D34A462946C2
:10065000384690470028F6DC44EA05003B1980073D
:100660000CD0002117E029180A1B0F6802E011685E
:100670001151121B9A42FAD2001D1751A0420CD2FE
:10068000F1E76818027801E007780755001B9842E7
:10069000FAD2491C0255A142F3D34545D0D3BDE857
:1006A000F087401ECAB210F8011F8A4202D000290A
:1006B000F9D10020704710B5431C02E010F8011B6F
:1006C00071B18107FAD14FF0013202C88C1A8C4304
:1006D00014EAC211F9D0C01A0A0603D0C01E10BD18
:1006E000C01A10BD0A0401D0801E10BD0902FCD042
:1006F000401E10BD40EA010370B59B072ED14FF09C
:100700000136042A2AD308C810C99D1B9D43121F15
:1007100015EAC61517D0D8B2E1B2401A50EA056101
:1007200010D198B2A1B2401A50EA05410AD123F083
:100730007F4024F07F41401A50EA052102D1180E73
:10074000A0EB146070BDA342DBD018BA21BA884276
:1007500001D9012070BD4FF0FF3070BD0AB90020F3
:1007600070BD10F8013B11F8014B63B1A3420AD1EF
:10077000521E08D010F8013B11F8014B1BB1A342E7
:1007800001D1521EEDD1181B70BD032A40F23080FA
:1007900010F0030C00F0158011F8013BBCF1020FC2
:1007A000624498BF11F801CB00F8013B38BF11F843
:1007B000013BA2F1040298BF00F801CB38BF00F85A
:1007C000013B11F0030300F02580083AC0F00880D7
:1007D00051F8043B083A51F804CBA0E80810F5E7BB
:1007E000121D5CBF51F8043B40F8043BAFF300809E
:1007F000D20724BF11F8013B11F801CB48BF11F813
:10080000012B24BF00F8013B00F801CB48BF00F8E2
:10081000012B704710B5203AC0F00B80B1E818509A
:10082000203AA0E81850B1E81850A0E81850BFF4DA
:10083000F5AF5FEA027C24BFB1E81850A0E8185079
:1008400044BF18C918C0BDE810405FEA827C24BFCD
:1008500051F8043B40F8043B08BF7047D20728BF5B
:1008600031F8023B48BF11F8012B28BF20F8023BAA
:1008700048BF00F8012B70474FF000020429C0F078
:10088000128010F0030C00F01B80CCF1040CBCF1C2
:10089000020F18BF00F8012BA8BF20F8022BA1EB14
:1008A0000C0100F00DB85FEAC17C24BF00F8012BF9
:1008B00000F8012B48BF00F8012B70474FF00002F1
:1008C00000B5134694469646203922BFA0E80C5046
:1008D000A0E80C50B1F12001BFF4F7AF090728BF21
:1008E000A0E80C5048BF0CC05DF804EB890028BF9D
:1008F00040F8042B08BF704748BF20F8022B11F0C6
:10090000804F18BF00F8012B704700004FF0013CEA
:1009100050F8042B51F8043B9A4221D1A2EB0C036E
:10092000934313EACC1317D150F8042B51F8043B2E
:100930009A4215D1A2EB0C03934313EACC130BD1CB
:1009400050F8042B51F8043B9A4209D1A2EB0C0356
:10095000934313EACC13DBD04FF00000704700BF85
:10096000D01A01BAB1FA81F101F0180122FA01F0AE
:10097000CB40C1F12001DBB2C0B2C01A2CFA01F3A6
:10098000D11A914311EAC311E6D1704770477047FD
:100990007047000001491820ABBEFEE726000200A8
:1009A00010B500F0D5FA006810BD10B5044600F08F
:1009B000CFFA046010BD70B5044685690068C106B1
:1009C00001D5302600E02026C00707D070BDD4E94D
:1009D000012130469047206A401C20626D1EF6D5EA
:1009E00070BD70B5044685690078C00707D170BD39
:1009F000D4E9012120209047206A401C20626D1E0E
:100A0000F6D570BD09684A0501D540B27047C905E1
:100A1000FCD500B2704709684A0501D5C0B27047DD
:100A2000C905FCD580B2704770B50C460546012A51
:100A300005D02878800600D5EA69002302E001236A
:100A400005E05B1C934202D2E05C0028F9D1A86962
:100A5000E618C01AA861286A184428622846FFF7D9
:100A6000AAFF04E0D5E9012114F8010B9047B44234
:100A7000F8D32846FFF7B5FF70BD00002DE9F0411F
:100A80000646002410687529314616A510D0FFF7D8
:100A9000B9FF002802DA404213A507E031688A074F
:100AA00001D512A502E0490704D511A5012401E0F2
:100AB000FFF7B1FF00210A2206F1240709E0B0FB8D
:100AC000F2FCB0FBF2F302FB1C0030307854184605
:100AD000491C0028F3D123462A463046BDE8F041A0
:100AE00000F07FBA000000002D0000002B00000085
:100AF0002000000011680268006A530501D50870E3
:100B00000AE0D30501D5088006E0130603D5C21715
:100B1000C1E9000200E008600120704701694A1C39
:100B200002610878704700B58FB0CDE9013100212E
:100B3000059105497944CDE903101146684600F056
:100B400029F90FB000BD0000E5FFFFFF0A6802F8B9
:100B5000010B0A60704700002DE9FF5F15468A46C9
:100B60000446DFF8AC80F8440027D8E900103E4680
:100B7000CDE9001010E03AF816106A4602A800F01D
:100B800095FE411C07D02178890603D5E269391802
:100B900091420DD80744761C2078800602D5E06982
:100BA000B84205DDAE42E6DB3AF816000028E2D195
:100BB000A069C01BA0612046FFF7FDFED8E9001028
:100BC000CDE90010002017E03AF818106A4602A894
:100BD00000F06CFEB0F1FF3F81460BD000250DF117
:100BE000080B05E0D4E901211BF8050090476D1CB6
:100BF0004D45F7D308F10100B0428046E4DB206A9E
:100C0000384420622046FFF7ECFEBDE8FF9F00005D
:100C1000E69700002DE9F0418046D21D22F0070240
:100C20000025D2E90002F52915A614D0011E72F1A3
:100C3000000106DA0023D0EB030063EB020211A6E9
:100C400008E0D8F800108B0701D50FA602E049078D
:100C500001D50EA601251146002408F1240704E061
:100C600000F07AF930323A55641C50EA0102F7D1AB
:100C70002B46324621464046BDE8F04100F0B1B96E
:100C8000000000002D0000002B00000020000000EC
:100C900030B4002100F1240408E002F00705D20876
:100CA000303542EA4372DB086554491C52EA0305B9
:100CB000F3D10468002310A2250707D5A40600D4A9
:100CC00021B1C46901230DA2641EC46130BC00F0CF
:100CD00088B910B5044621461068FFF79CFE02460D
:100CE0002046BDE810400023D2E7D21D22F00701C4
:100CF000D1E90023CCE70000000000003000000034
:100D0000F0B40D460188090502D5214C7C4402E06F
:100D10001F4C7C440E34002100F1240608E002F050
:100D20000F071209E75D42EA03721B097754491C59
:100D300052EA0307F3D102780023120704D5702D7D
:100D400006D009B1022311342246F0BC00F049B9A3
:100D500001231034F8E770B504460D4621461068AB
:100D6000FFF759FE024629462046BDE870400023A1
:100D7000C6E7D21D22F00703D3E90023C0E70368CA
:100D8000126843F0200303600823C3610023B7E720
:100D9000489600002DE9F05F894604464FF0000AAE
:100DA000DFF874B1FB44C0F820A02046E168884712
:100DB000002874D0252806D0D4E901219047206A64
:100DC000401C2062F1E700265F462046E168884724
:100DD0002028054607DB312D05D2781910F8200CA4
:100DE00008B10643F1E7B00701D526F00406C4F8C0
:100DF0001CA00027C4F818A02A2D09D0284605F009
:100E00007DFD38B304EB8708303DC8F8185019E071
:100E100059F8041B204604EB87029161E16888477A
:100E2000012F054618D1E069002820DA26F02006B7
:100E30001DE0D8F8180000EB800005EB40003038CA
:100E4000C8F818002046E1688847054605F056FDB9
:100E50000028EED1012F0AD02E2D08D12046E168BE
:100E600088477F1C0546022F46F02006C4DBA06998
:100E7000002803DA404246F00106A061F00701D0E5
:100E800026F010066C2D0BD0682D09D04C2D39D0D2
:100E90006A2D35D0742D35D07A2D33D016E038E058
:100EA000E1682F4620468847B842054609D16C2F95
:100EB00026D04FF48060E168064320468847054607
:100EC00004E06C2F1AD04FF4807006430DB3A5F1E7
:100ED0004100192802D8203546F400664A462946C2
:100EE000204626604E46FFF789F980B101280BD0D5
:100EF000F61D26F0070000F1080956E74020E4E758
:100F00008020D8E70020D6E706F104094DE72846FF
:100F100052E7206ABDE8F09FD89500007CB50546F1
:100F200000236846CDE9003300F08CFC6946284672
:100F300005F014FC7CBD10B500F0DEFCBDE81040EF
:100F400000F0D4BC00487047700B002070470000D0
:100F500000487047700B002030B5B0F10A024FEA2C
:100F6000900E71F100034EEA817EB0EB0E0061EB52
:100F700091014FEA101E4EEA017E10EB0E0041EB8C
:100F800011114FEA102E4EEA016E10EB0E0041EBEC
:100F900011214FEA104E4EEA014E10EB0E0041EBCC
:100FA0001141401841F100014FEAD00040EA417080
:100FB0004FEAD10110EB80054FEA810444EA9074B6
:100FC00044EB01046D1944EB0404521BA3414FF0A0
:100FD000000348BF0A3200D530BD401C41F100017A
:100FE00030BD2DE9F0470D4699469246044600F182
:100FF00024080168880604D5E06921F01001216009
:1010000000E00120A84201DD471B00E00027A169A4
:101010007A1902EB0900081AA0612078C00602D4F0
:101020002046FFF7C8FC002608E0D4E901211AF8A1
:1010300006009047206A401C761C20624E45F4DB77
:101040002078C0060AD52046FFF7B5FC06E0D4E9B3
:10105000012130209047206A401C2062381EA7F1F1
:101060000107F4DC07E0D4E9012118F805009047F6
:10107000206A401C2062281EA5F10105F3DC2046F1
:10108000FFF7AFFC2078000602D50220BDE8F0870C
:101090000120FBE770472DE9FF4F0C461E464FF03D
:1010A000FF378BB0D2E90001DDF860800A908A46F4
:1010B000C1F30A5505B93D46002108464FF000002E
:1010C000BAF1000F00F4400005DA00EB80004FF4A5
:1010D000400101EA50004FEA9059B9F1010F00DDDB
:1010E000B9460A9850EA4A000ED044F61050A5F2CC
:1010F000FF3545432F14B8F1000F1ED07542291E4D
:101100001EDDC9F100021CE0B8F1010F4FF0000034
:1011100001D0302103E0F24305E02154401CB042ED
:10112000FBDB30460022002121540B99C1F80880D6
:10113000C1E900200FB0BDE8F08FBD1B6D1CDEE7DC
:101140004A4600DA694206A800F08AFC06AB93E83A
:10115000070003AB83E8070050460A9901F0E3F962
:101160008DE80700A0F500501F3800900398002D6F
:101170000ADD42F21F014A460844002303A90390F6
:10118000684601F08FFC09E0A0F500504A461F3880
:10119000002303A90390684601F0AEFC8DE8070028
:1011A0000004000C03D04FF0FF30410800E010466F
:1011B000B8F1000F03D00022009215461EE0751E04
:1011C00005D4FFF7C9FE303262556D1EF9D5B3461E
:1011D0000122084302D000227F1C04E0207830283E
:1011E00001D100227F1E002A099784D01DE0112D15
:1011F00007DAFFF7B1FE303262556D1C50EA01028A
:10120000F5D1084302D00098C8B10EE00021681E55
:1012100005E0235C625C63542254401E491C8142F9
:10122000F7DBAB46A81B401E0990002004F80B001A
:101230000B98099AC0F80880C0E9002B7AE71126BC
:101240004FF0000857E72DE9F04F88460446D21DBD
:1012500022F0070191B0D1E90001CDE90A0104F0C3
:10126000A3FD02460B98C00F01D02D2007E0206897
:10127000810701D52B2002E0202101EAC000032ACA
:10128000099001D0072A05DB03464146204600F0BD
:1012900087FB0BE12078800601D5E06900E006209D
:1012A000B8F1650F814606D0B8F1660F18D0B8F1D5
:1012B000670F70D131E00020B9F1110F009001DB10
:1012C000112301E009F101030AAA01A90CA8FFF703
:1012D000E2FEDDE90C70002609F10105834647E0D6
:1012E00001204B4600904FF000470AAA01A90CA824
:1012F000FFF7D1FEDDE90DB00C995D46002610B96F
:1013000009F101000D18B9EB050003D4C0F1FF3657
:1013100009F10105A5EB09002BE0B9F1010F01DA94
:101320004FF001090020B9F1110F0090484601DD8E
:10133000112300E003460AAA01A90CA8FFF7ABFE9F
:10134000DDE90C704D4600268346207800070AD45C
:10135000AB4500DA5D4601A8012D04DD411911F805
:10136000011C302907D04F4502DA17F1040F04DAC7
:10137000012082460FE06D1EEEE7002F02DCED1B20
:101380003E4403E0781CA84200DD7D1CB81B00F140
:10139000010A4FF000472078000703D4AA4501DB7B
:1013A0004FF0FF3A0021B7F1004F0DF143088DF8DF
:1013B000431024D002202B23002F01DA7F422D235B
:1013C0000A21021EA0F1010000DC5FB197FBF1FCD5
:1013D00097FBF1F201FB1C7C17460CF1300C08F86E
:1013E00001CDEEE7A8F1010003702188090501D5C0
:1013F000452100E06521A0F1010800F8011C0998D1
:101400000FA9A1EB0807FF1D00B10120411901EB55
:10141000EA70A1693844081A401EA0612078C0060D
:1014200002D42046FFF7C7FA099828B1D4E9012170
:101430009047206A401C20622078C00622D52046B2
:10144000FFF7B9FA1EE0002E04DBB34502DD01A868
:10145000805D00E03020D4E901219047206A401CE3
:101460002062761CAAF101005FEA000A0AD100F0AE
:1014700089FAC0680168405CD4E901219047206A7C
:10148000401C2062281EA5F10105DCDC07E0D4E940
:10149000012118F8010B9047206A401C2062381E79
:1014A000A7F10107F3DC2046FFF79BFA032011B0F8
:1014B00041E600002DE9F04F04460D46D21D22F012
:1014C000070089B0D0E900974846394604F06CFC23
:1014D0000246F80F01D02D2307E02068810701D5CF
:1014E0002B2302E0202101EAC0038DF820300BB14C
:1014F000012000E00020032A824601D0072A04DBF5
:101500002946204600F04CFA3FE12078800601D4BD
:101510000D2500E0E569C7F30A560D2D49DA0021D3
:101520004FEA175B08464FF00000002F00F4400020
:1015300007DA00EB80004FF4400100EBD07001EAC5
:1015400060008115012901DD4FF0FF3100224FEAD3
:10155000850CBCF1180F06D31346ACF118004FF000
:101560008052C24003E04FF4801323FA0CF30CF1D5
:101570000C0CBCF1200F04D3ACF1200C09FA0CF0D8
:1015800001E007FA0CF000294FF0004801DD18B91E
:101590000FE00ED140450CD319EB02095F4121B990
:1015A000404502D19F4329EA0209BBEB175F00D0F7
:1015B000761C2088000502D57B48784402E07A48F2
:1015C0007844193808AA302302F80A30037C0AF15B
:1015D0000101002E0AF1020A53546A4602DC4FF060
:1015E000300101E04FF031014FF001088DF800109B
:1015F00002D0A6F2FF3603E059EA470100D06B4E55
:10160000002D02DC2178090704D54FF002082E21B5
:101610008DF80110C44600210BE0C7F303433F01DE
:10162000C35C491C6D1E02F80830052908F1010849
:1016300001DA002DF1DC00210CE000EB1973491CEC
:101640001B786D1E082902F808304FEA091908F1C5
:10165000010801DA002DF0DC21688B0602D516E0C6
:10166000A8F10108E04505DD02EB080313F8013C91
:10167000302BF5D0B8F1000F09DD02EB080313F8A9
:10168000013C2E2B03D1090701D4A8F10108002D3C
:1016900005DD3E2102F808106D1E08F10108407CAE
:1016A000002E02F8080008F1010804DA2D20764225
:1016B00002F8080002E02B2002F808000A214FF48B
:1016C0007A70864208F101080BDB96FBF0F33033A9
:1016D00002F8083096FBF0F308F1010800FB1366EE
:1016E00001E0642E0CDB642096FBF0F3303302F84B
:1016F000083096FBF0F308F1010800FB136601E0E7
:101700000A2E06DB96FBF1F0303002F8080008F1F3
:10171000010896FBF1F001FB1060303002F8080080
:10172000A16908F1010808EB050202EB0A00081A9A
:10173000A0612078C00602D42046FFF73CF9216A58
:1017400008AE01EB0A00206204E0D4E9012116F89A
:10175000010B9047BAF1010AF7D22078C00602D5F2
:101760002046FFF728F96E4609E016F8010B3E28DF
:101770000FD0D4E901219047206A401C2062B8F1C3
:101780000108F2D22046FFF72CF909B00320BDE88A
:10179000F08F206A2844206203E0D4E90121302040
:1017A00090476D1EEBD3F8E7098E000002FCFFFFA7
:1017B00010B5436913B1AFF3008001E0FFF734F9CE
:1017C000012010BD127800F124010A7000224A7035
:1017D0000122EDE711684FF0FF32E9E710B54369E8
:1017E00013B1AFF3008001E0FFF7B6F9012010BD9F
:1017F000128800F1240182840022C2840122EDE7D4
:1018000011684FF0FF32E9E70FB4002300B589B04B
:101810000CA900910B99CB60214B7B440693214B83
:101820007B44079304236FF00042CDE901321E4A46
:101830007A446B4608920246002008F05AFD09B02F
:101840005DF814FB70B506464FF0FF3015460C46A8
:10185000324686B00091CDE901016946002004902E
:1018600004A8FFF7D1FF02460498211825B108B15A
:10187000084600E020462860049800280DD0002A81
:1018800002DD0098884208D03246081B6946009461
:10189000CDE9010404A8FFF7B7FF06B070BD000052
:1018A000030200001B0200005901000070B516463B
:1018B0000C46054600F05EF8036893F80101012824
:1018C00006D0FF2C0FD8185D68B101202C7070BDB8
:1018D000D3F807013246214603F207130344284692
:1018E000BDE8704018474FF0FF3070BD002801D0B0
:1018F000FFF750B87047000010B5002102A000F0BB
:101900002AF9012010BD0000534947414252543A80
:101910002041626E6F726D616C207465726D696ECC
:101920006174696F6E0000007546FFF70BFBAE46F1
:1019300005006946534620F00700854618B020B5DB
:10194000FEF7D6FCBDE820404FF000064FF0000740
:101950004FF000084FF0000B21F00701AC46ACE857
:10196000C009ACE8C009ACE8C009ACE8C0098D46C4
:101970007047000010B500F005F8001D10BD00BF55
:101980008184000000487047900B002010B5044689
:10199000FFF7F0FF0068005D00F0010010BD0000DF
:1019A0002DE9F0411F46044603260168072A01F489
:1019B000006004DB08B116A505E016A503E008B138
:1019C00015A500E015A521F010002060A069C01E3B
:1019D000A0610FB1401EA0612046FEF7ECFF4FB1A1
:1019E000D4E9012138469047206A401C2062C01C7F
:1019F000206206E0206AFAE7D4E9012115F8010B1C
:101A00009047761EF8D22046FEF7EBFFBDE8F08146
:101A10004E414E006E616E00494E4600696E660092
:101A2000426842B1016811F8013B23B1521EC0E97E
:101A30000012184670470121C160881E7047426835
:101A40005AB1C368016843B983688B4205D0491E07
:101A5000521CC0E90012002070474FF0FF30704761
:101A60002DE9F047814616468AB0354878440DC8BE
:101A70008DE80D0032487844801C03AC0DC884E822
:101A80000D0041F69B300844372190FBF1F290FBAA
:101A9000F1F5A5F1800501FB12041B3C02D564425F
:101AA000012000E00020DFF898A080460027FA44DB
:101AB000AAF1BE0A0EE0E0070AD03246684607EBFC
:101AC000470101230AEB810101F016F88DE80700B8
:101AD00064107F1C002CEED1194F7F44AE3F19E0FB
:101AE000E80715D007EB04100DF1180A90E80E0076
:101AF0008AE80E00C068F04201D198190890324679
:101B0000012306A903A800F0F7FF03AB83E8070051
:101B10006D10641C002DE3D14FF00103324669467D
:101B2000B8F1000F03A802D000F0BCFF01E000F004
:101B3000E3FFC9E90001C9F808200AB0BDE8F08751
:101B4000E889000010B50446AFF300802046BDE8E8
:101B50001040FEF7B8BB70B505460C460A2000E001
:101B60006D1C00F011F835B128780028F8D102E09A
:101B7000641C00F009F814B120780028F8D1BDE801
:101B800070400A20AFF3008008B569468DF8000068
:101B90000320ABBE08BD00002DE9FF4F06468BB009
:101BA0000878FF2806D0491C2D2805D000244FF0C6
:101BB000000908E000200CE00124F8E709EB8903A4
:101BC000491C00EB43090878FF28F7D114B1C9F18B
:101BD00000008146107800252C46AA4629462D286B
:101BE00001D02B2804D1521C2D2813D0002082466E
:101BF0008B461078FF280FD04FF0000C0A21521CA2
:101C0000A5FB017804FB018105FB0C11C5194BEB09
:101C10000104EEE70120EAE7002108464FF000004A
:101C2000BAF1000F02D000EB80004008C0F38157EA
:101C3000012F01DD4FF0FF370E9955EA040009EB43
:101C400001080BD04FF0020918F5FA7F16DA4FEAB7
:101C5000CA70002F706008DD012007E04FEACA70EB
:101C6000C6E900B00FB0BDE8F08F00203060FFF78C
:101C70006FF9C0F800901821084616E0B8F5FA7F11
:101C800018DD002F02DAF748784401E0F64878447E
:101C9000D0E90010C6E9001040EACA707060FFF792
:101CA00057F9C0F80090142108460FB0BDE8F04F76
:101CB00008F0B8BA002108464FF00000B8F1000162
:101CC000099002DAC7F1000200E03A4601DAC8F1F1
:101CD000000106A8FFF7C4FE06AB93E8070003ABBC
:101CE00083E8070044F23E005BEA04010090584696
:101CF00004D144F21E012C465D460091210C0904DA
:101D0000014306D10099240444EA15442D041039F6
:101D1000009104F07F41014306D10099240244EA76
:101D200015642D020839009104F07041014306D179
:101D30000099240144EA15742D01091F009104F053
:101D40004041014306D10099A40044EA9574AD00D6
:101D5000891E009104F00041084304D100986D19D8
:101D60006441401E00904FF001033A466846B8F1C6
:101D7000000FCDE9014503A902DD00F0D2FE01E02C
:101D800000F0A5FEBAF1000F04460D4601D084F024
:101D90000044002108464FF00000099940F2FF7707
:101DA000484010F00C0F07D124F00040284303D026
:101DB000C4F30A50B84212D1FFF7CAF8C0F8009035
:101DC000C4F30A50B8420AD1A8487844D0E90010B8
:101DD000C6E9001004F000410843706042E7C6E91C
:101DE00000543FE72DE9FF4F1F464FF0000A4FF028
:101DF000FF38454691B0D7E90146CDF83CA0FFF742
:101E0000C1FDC0680168405C1090B96912986D1CF2
:101E10008847396A814688470028F6D1B9F1FF3FE3
:101E20000AD0002E24F4D06411DDB9F12B0F08D0B4
:101E3000B9F12D0F0BD102E0404615B013E744F481
:101E40008064B96912986D1C8847761E81466005CA
:101E500004A901D52D2000E02B20002E01F1010B5B
:101E60000DF130088DF810003FDDB9F1690F08D091
:101E7000B9F1490F05D0B9F16E0F02D0B9F14E0F8B
:101E80001CD13B4601A8009580E85002DDE9121202
:101E90006FF0020008F031FAC11CCED10EE0B96932
:101EA00012986D1C884781461398761E44F400747E
:101EB00005600F98401C002E0F9016DDB9F1300F11
:101EC000EDD0B9F1780F02D0B9F1580F0DD10F98BC
:101ED00001280AD13B46CDE90054DDE91212001F6A
:101EE000029608F008FAC11CA7D1109989453ED185
:101EF00044F0800406E01399681CAAF1010A44F436
:101F000000740860B9696D1C1298761E88473028E5
:101F10008146F0D02BE01099894505D1200603D4E5
:101F2000761E44F0800418E0484604F0E7FC08B34D
:101F3000761E0DF123018B4544F4007408D2A9F1FB
:101F400030000BF8010B200607D5AAF1010003E0D1
:101F5000200602D40AF101008246A00502D5139999
:101F6000681C0860B96912986D1C88478146002E6C
:101F7000D1DC53E0002E51DDB9F1650F02D0B9F18B
:101F8000450F4BD1A00549D5B9696D1C1298761E35
:101F900024F440748847002E81460CDD2B2804D0A1
:101FA000B9F12D0F07D144F48074B96912986D1CF2
:101FB0008847761E8146E00501D52D2100E02B21C2
:101FC00008F8011BCDF8008021E0761E0DF13901E3
:101FD000884544F400740CD2A9F1300010F0FF00E1
:101FE00088F8000002D10099884509D908F1010854
:101FF00006E0E00501D51E4801E042F20F7082467E
:10200000B96912986D1C8847814613980560002EA7
:1020100004DD484604F072FC0028D6D1F969129814
:102020008847FF2053468BF8000088F80000002006
:102030000A900B9004AA0CA90AA8FFF7ADFDA00511
:1020400002D46FF00100F8E614F0240F12D0E0077C
:102050001CD13868DDE90A12031D3B600068C0E945
:10206000001213E0A4910000969100005A90000025
:10207000F1D8FFFF0AA9684604F070FBE00705D11C
:102080003868009A011D3960006802602846D4E66D
:102090002DE9FF4F1F464FF03C0987B04FF000423B
:1020A000DDE9141001F10108DDF858A002EA405002
:1020B0000390002005908346054604460490B969C4
:1020C000461E08988847AAF1010A0290BAF1000F4B
:1020D0003BDD02982E2815D0102100F016FA0028BA
:1020E0002EDB4FF0010B0599014317D0B9F1000F1A
:1020F0000BDB4A46C11700F0F5F905430C43A9F183
:10210000040905E0012004900BE008B145F0010549
:1021100001200590049820B9361D02E0049800B112
:10212000361FB969089808F101088847BBF1000F0C
:10213000AAF1010A0290C9D00999C1F80080C5E747
:102140000298702808D0502806D0F9690898884766
:10215000BBF1000F14D04FE0002002900120BBF132
:10216000000F049009D0B969089808F10108884760
:10217000AAF10109B9F1000F07DCF969089888474D
:102180006FF001000BB0BDE8F08F2B2804D02D2894
:102190000CD14FF0FF300490B969089808F101089C
:1021A0008847A9F10109B9F1000FE6DD411CE4D02F
:1021B0000A2100F0AAF90028DFDB029908F10108E2
:1021C00001EB810100EB41000290B9690898884752
:1021D0000A2100F09AF9099AA9F10109B9F1000F51
:1021E000C2F8008001DD0028E7DAF969089888471D
:1021F0000499029800FB016655EA040004D004F03B
:102200004041090002D006E0039898E0A40044EAA7
:102210009574AD00B61E04F00041080002D16D199E
:102220006441761E159810F0240F03D04FF00B096F
:102230005C4803E04FF028096FF07D008246564568
:1022400007DAAAEB06018944B9F1410F01DD4FF02D
:10225000410901200021A9F1010200F043F90246E1
:1022600028400B462140084301D0012100E0002115
:10227000501E029143F1FF3128402140084301D014
:10228000012000E000200299834651EA0B014FD063
:10229000002108464FF00000039900F4400039B1D6
:1022A00000EB80004FF4400100EBD07001EA6000C9
:1022B0008015012802DD4FF0FF3000E013D0401CF4
:1022C00036D0029860B3BBF1000F0CD14A46012012
:1022D000002100F007F928402140084301D00120E7
:1022E00000E00020E0B101204A46002100F0FAF8A9
:1022F000034640190A4661412D1A8C4111D3B9F1A8
:10230000400F09DD159810F0240F02D0AAF1340611
:1023100003E0AAF1170600E0761C00254FF0004408
:1023200006E05B1E42F1FF3220EA030521EA0204C7
:10233000CAF10100B04206DA1B4903980843019034
:10234000002000900EE0039AC4F3D321E80A0A4368
:10235000164940EA44500A433146CDE90002684636
:1023600004F0B0FA159810F0240F0BD01598C007A0
:1023700015D13868DDE90012031D3B600068C0E933
:1023800000120CE002A8694604F0E8F91598C007AD
:1023900005D13868029A011D396000680260404624
:1023A000F0E6000002FCFFFF0000F07F0000F03FBD
:1023B0002DE9FF4F92461D4685B04FF00041DDE903
:1023C000124BDDE914727F1E01EA4B50414940F087
:1023D000FF4940EA0108002122F020004928049129
:1023E00002D04E2828D04CE03BA0012607C88DE83B
:1023F0000700A9690698641C88477F1E014606D419
:102400001DF8060018B121F0200181420BD0E969C6
:1024100006988847032E34D0082E32D06FF0010082
:1024200009B0BDE8F08F761C032E01D0082EE0D154
:10243000601CCAF80000DCE7A9690698641C88479C
:102440007F1E2AD420F02000412826D1A9690698B1
:10245000641C88477F1E20D420F020004E281CD109
:10246000A9690698641C88477F1E48F4002849F42F
:102470008009CAF8004001D4282806D0E9690698E6
:1024800088475FEACB7012D022E0A9690698641CE5
:1024900088477F1E01D4002803DAE9690698884737
:1024A000BCE72928F1D1641CCAF80040E9E71BF019
:1024B000240F07D028680499031D2B600068C0E929
:1024C000001805E02868021D2A600068C0F8009026
:1024D0002046A5E70000F07F494E46494E49545931
:1024E00000000000B2F120030AD5C2F1200301FA76
:1024F00002F120FA03F300FA02F041EA0301704707
:1025000000FA03F14FF0000070473A2800D230384B
:1025100020F02002412A01D3A2F13700884201D3E2
:102520004FF0FF3070475FEA400C08BF91F0000F9A
:102530004FEA8C234FEAC12243EA51514FEA1C5023
:1025400018BF00F5F0404FEA300018BF41F00041DD
:102550005FEA6C5C00F02980BCF1FF3F08BF40F0EF
:1025600080407047130C06BF12044FF0100C4FF060
:10257000000C130E04BF12020CF1080C130F04BF61
:1025800012010CF1040C930F04BF92000CF1020C29
:10259000D30F04BF52000CF1010C11464FF00002A2
:1025A000A0F11F00A0EB0C00704711F0004F08BF16
:1025B000704731F000413FF4D5AF0B0C06BF090462
:1025C0004FF0100C4FF0000C0B0E04BF09020CF181
:1025D000080C0B0F04BF09010CF1040C8B0F04BF96
:1025E00089000CF1020CCB0F04BF49000CF1010C67
:1025F000CCF12003A0EB0C0022FA03F302FA0CF258
:1026000041EA030100F10100704720F07F4C80EAAD
:10261000030023F07F47ACEB070303F57C5300F086
:10262000004003F1FF032DE980494FEA154B09B43F
:102630004FEA144325EA0B4E24EA03480FF204261E
:1026400006EB132749083E785FEA320203FB066770
:10265000C7F5000707FB06F64FEA54374FEAD646A0
:1026600006F1020607FB066CCCF1005C4FEA1C4742
:102670002CEA074C07FB06F40CFB06F504EB1546A9
:102680004FEA961634BF00204FF000404FEAD13792
:1026900006FB07FC4FEA1C4C0CFB0BF7D21B03FBA1
:1026A0000CF761EB07010CFB0EF7B0EB074072EB88
:1026B00017420CFB08F734BFA2EB0742B2EB07420C
:1026C00061EB17414FEA0C444FEA910706FB07FC08
:1026D0004FEA1C4C0CFB0BF7B0EBC74072EB5732C8
:1026E00003FB0CF734BFA2EBC742B2EBC74261EB6E
:1026F00057310CFB0EF7B0EBC70072EB57720CFBB7
:1027000008F734BFA2EBC702B2EBC70261EB577107
:10271000039F4FEA816141EA921104EBCC044FEA36
:10272000D1374FEA826206FB07FC42EA90124FEA79
:1027300080604FEA1C4C0CFB0BF7D21B03FB0CF721
:1027400061EB07010CFB0EF7B0EB074072EB174291
:102750000CFB08F734BFA2EB0742B2EB074261EB78
:1027600017414FEA8C554FEA910704EB9C2406FB76
:1027700007FC4FEA1C4C0CFB0BF7B0EBC74072EBAD
:10278000573203FB0CF734BFA2EBC742B2EBC74290
:1027900061EB57310CFB0EF7B0EBC70072EB5772D1
:1027A0000CFB08F734BFA2EBC702B2EBC70261EB28
:1027B000577115EB4C254FEA816141EA92114FEABE
:1027C00082624FEAD13742EA901206FB07FC44F1DD
:1027D00000044FEA80604FEA1C4C0CFB0BF7D21B45
:1027E00003FB0CF761EB07010CFB0EF7B0EB0740A6
:1027F00072EB17420CFB08F734BFA2EB0742B2EBB7
:10280000074261EB174115EB1C154FEA813141EA94
:1028100092414FEA823242EA90424FEA80304FEAD8
:102820000C7644F1000448EA03434EEA0B484FF0AB
:10283000000EB2EB080C71EB030724BF6246394669
:102840004EEB0E0E4FF0000B0018524149414BEB7E
:102850000B0BB2EB080C71EB03077BF1000B24BFF1
:10286000624639464EEB0E0E4FF0000B00185241F7
:1028700049414BEB0B0BB2EB080C71EB03077BF1FF
:10288000000B24BF624639464EEB0E0E51EA02079A
:1028900018BF46F0010616EB0E7655F1000254F112
:1028A000000103D5BDE88901BDE80088BDE88901C4
:1028B000BDE80048B619524141EB0101A3F1010303
:1028C000704780807F7E7D7C7B7A7978777676759D
:1028D0007473727171706F6E6E6D6C6C6B6A6A6915
:1028E0006868676666656464636362616160605FAF
:1028F0005F5E5E5D5D5C5C5B5B5A5A595958585728
:10290000575656555555545453535252525151508F
:1029100050504F4F4F4E4E4D4D4D4C4C4C4B4B4BE2
:102920004A4A4A4949494848484747474746464628
:102930004545454444444443434343424242424163
:102940004141000046EA0646A3F570534FEA164699
:1029500046EA42564FEAD22242EA415210B54FEAC5
:10296000D121A3F1010300F02FF820F0004000F185
:10297000020C00F0004701EB00501146BCF5006F5F
:1029800040EA070000D210BDBAF1000F0AD01CB512
:1029900003B44FF004004FF004014FF000000FBCEF
:1029A000BDE810404FF00001BBF1010FB9BF044872
:1029B0004FF0FF310348002140EA070010BD00BF7F
:1029C000FFFFEF7F0000F07F002B9C4630D47700A4
:1029D0002BD01CB54FEA370703B44FF010004FF06F
:1029E0001001BAF1000F06D0BCF1000FDCBF40F0BF
:1029F000080040F008014FF000000FBCBDE8104097
:102A00000BF1010BBBF1010F08BF5FEA170722BFF3
:102A100012F1010211F101014FF0004143F10003F5
:102A200000F0004043EA00007047F9D35708D0E7B0
:102A300046EA064613F1400F4FEA16461FDD13F132
:102A4000200FDFBF16430A46002120335B42BED071
:102A5000C3F1200746EA064602FA07F74FEA164690
:102A600046EA0706C3F1200722FA03F201FA07F744
:102A700021FA03F14FF0000342EA0702A7E746EA12
:102A8000020646EA06464FEA164646EA0106BCBF7B
:102A900046EA0646360C4FF000034FF000024FF0B6
:102AA000000194E72DE9804C9A46934670B491E872
:102AB000380007C831EA400C48BF34EA430C03D55C
:102AC000FFF7A3FDFFF780FFF0BCBDE8008C2DE908
:102AD000804C9A46934670B491E8380007C831EAB2
:102AE000400C48BF34EA430C03D5FFF78EFDFFF7D7
:102AF00029FFF0BCBDE8008C2DE9804C9A46934636
:102B000070B491E8380007C810F0804F08BF13F088
:102B1000804F03D100F01AF8FFF756FFF0BCBDE874
:102B2000008C2DE9804C9A46934670B491E83800A9
:102B300007C810F0804F08BF13F0804F03D100F09A
:102B400005F8FFF7FFFEF0BCBDE8008C20F07F47E2
:102B500080EA030023F07F4C07EB0C03A3F57C53C2
:102B600000F00040A3F1FE0392F0000F00F0B380EC
:102B700095F0000F00F077802DE901494FEA1140F0
:102B80004FEA144621EA004800FB06FC24EA064707
:102B900008FB06F607FB08F800FB07F718EB0648EA
:102BA0004CEB164C4FEA124B18EB07484FEA154610
:102BB0004CEB174022EA0B4E0BFB06FC25EA0647BE
:102BC0000EFB06F607FB0EFE0BFB07F71EEB064E91
:102BD0004CEB164C4FF000061EEB074E4CEB174B20
:102BE00018EB0B0840F1000018EB0E0B58EB000837
:102BF00040F100008F1A4FF000013CBFC943661B33
:102C000014BFB5EB040C00213CBFC943F61B4FEACF
:102C100017444EEA8E0E27EA04454FEA1C4704FB90
:102C200007622CEA074C05FB07F70CFB05F604FBD3
:102C30000CFC16EB074642EB174216EB0C4642EB38
:102C40001C421BEB060658EB0202414146EA9E0677
:102C500001D5BDE80189B619524141EB0101A3F14B
:102C60000103BDE801894FEA14454FEA114724EA00
:102C7000054621EA074C05FB07F406FB07F70CFBAA
:102C800006F105FB0CFC11EB074144EB17444FEA3E
:102C9000124711EB0C4144EB1C4422EA074C05FBA4
:102CA00007F206FB07F70CFB06F605FB0CFC16EB20
:102CB000074642EB174216EB0C4642EB1C456A18DE
:102CC00054F1000148BF7047B619524141EB010170
:102CD000A3F10103704795F0000F37D04FEA11427E
:102CE0004FEA144721EA024624EA074C02FB07F1A7
:102CF00006FB07F70CFB06F402FB0CFC14EB074485
:102D000041EB17414FEA154714EB0C4441EB1C41D2
:102D100025EA074C02FB07F506FB07F70CFB06F656
:102D200002FB0CFC16EB074645EB174516EB0C4671
:102D300045EB1C42121951F1000148BF7047B6190A
:102D4000524141EB0101A3F1010370474FEA1445E1
:102D50004FEA114724EA054621EA074C05FB07F133
:102D600006FB07F70CFB06F24FF0000605FB0CFC18
:102D700012EB074241EB174112EB0C4251EB1C41A5
:102D800048BF7047921841EB0101A3F1010370475E
:102D900010B50146806B026C12F0500F05D0026C2A
:102DA000D20626D500F0AEFB10BD016C41F40071D7
:102DB000016401688A6812F0405F17D1027EAAB9E7
:102DC000CA6A12F4700F02D08A6852050ED44A689B
:102DD00022F020024A60016C21F480710164016CD0
:102DE000C90403D4016C41F00101016400F088FBC7
:102DF00010BD806BC26CBDE810400846104710B58E
:102E0000806B40210164416C41F00401416400F099
:102E100079FB10BD10B5806B00F073FB10BD000096
:102E200010B5044800F06FFBBDE81040024800F008
:102E30006ABB0000DC00002024010020464910B5D8
:102E40004A6822F440324A604A6843681A434A603A
:102E500001684A6822F480724A6001684A6803691E
:102E600042EA03224A6001684A6822F040724A60DE
:102E700001684A6883681A434A6001688A6822F4D4
:102E800000628A6001688A68C3681A438A60816A3E
:102E90006FF07062D14201688A6822F070628A60C5
:102EA00001688A680CD0836A1A438A6001688A685C
:102EB00022F040528A6001688A68C36A1A4301E0BE
:102EC00022F040528A6001688A6822F002028A6019
:102ED00001688A68037E42EA43028A6090F8201003
:102EE000002901684A680FD042F400624A60016814
:102EF0004A6822F460424A6001684A68174C436A93
:102F000004EB43331A4301E022F400624A60016893
:102F1000CA6A22F47002CA620168CA6A838B104CC2
:102F200004EB03531A43CA6201688A6822F40072F0
:102F30008A6001688A6890F8303042EA43228A60E9
:102F400001688A6822F480628A6001688A68406940
:102F500042EA8020886010BD0023014000E0FFFFAE
:102F60000000F0FFFEE70000014800F021BE000075
:102F70001003002001681823CAB2103AB2FBF3F222
:102F8000054B6FF30901032A9B5CC36500D9091D3A
:102F900081650846704700002EA3000810B5014661
:102FA00000208B698A6A4FF0C07453B1B3F5005F9B
:102FB00015D072B1012A0CD0022A0AD0032A09D1F5
:102FC00004E01AB1012A06D0022A03D1C96AC90154
:102FD00000D5012010BDC96AA142FAD010BD002A57
:102FE000F7D0012AF2D0022AF3D0032AF3D010BD81
:102FF00030B50468256825F4802525600468636081
:103000008368402B036803D099600068C26030BDBC
:103010009A600068C16030BD70474FF4007000F0E6
:1030200055BF72B6FEE7000070B590F83C20694DC0
:10303000012A19D0012280F83C200A68072304687D
:10304000092A13D9E6680A3A02EB420293409E43EA
:10305000E6600A788B680A3A02EB42029340026803
:10306000D4682343D36010E0022070BD266902EBD0
:10307000420293409E4326610A788B6802EB42022B
:10308000934002681469234313610268936B23F42D
:10309000401393630268936B0C8A4F4E06EB045403
:1030A000234393630A790B7CD21AD21C02EB82026F
:1030B0001F2393400268946B9C4394630A790B7CB2
:1030C000D21AD21C02EB82030A8892B29A40036899
:1030D0009C6B22439A638A69AA420268936823F42C
:1030E00070239360026893680CD08C6923439360CB
:1030F0000268936823F44013936002689368CC6974
:10310000234301E023F4401393604A7D002A0268C0
:10311000536802D043F4806301E023F4806353607A
:103120000A7D002A0268536802D043F4805301E00C
:1031300023F4805353604A68012A16D0022A1FD014
:10314000032A026827D0136A6FF30B031362026825
:10315000136ACC6823431362214B04681F4A9C42C4
:1031600027D10C68122C20D023E0026853696FF33A
:103170000B03536102685369CC6823435361EBE747
:10318000026893696FF30B03936102689369CC68DB
:1031900023439361E0E7D3696FF30B03D3610268C4
:1031A000D369CC682343D361D6E7546844F48004E0
:1031B000546004689C4208D10968102901D0112983
:1031C00003D1516841F400015160002180F83C10A6
:1031D000084670BD01000F000000F0FF0023014011
:1031E0000020014010B523492DED028B88423DD1CE
:1031F00005F016FA04F01EF920491F480B68026911
:103200005A630B6842699A6309688269CA639FEDD1
:103210001C8AD0ED0B0A0022B0EE480A114600EEDF
:10322000880A1848BCEEC00A10EE103A00F07EFC86
:103230001548B0EE480A0022D0ED150A10211148B9
:1032400000EE880ABCEEC00A10EE103A00F06EFCE8
:103250000E4CE068401CE060B0F57A7F06D34FF476
:1032600000510B4800F036FF0020E060BDEC028BFF
:1032700010BD0000DC00002058050020A80100203F
:1032800000000045940100209C050020140000204F
:103290000008024008B5002200920368521F1A601D
:1032A000012911D002290CD0032906D0042901D00C
:1032B000009808BD0068806C01E00068406C0090D8
:1032C00008BD0068006CFAE70068C06BF7E7000013
:1032D00018B50022009290F83C10012907D0012176
:1032E00080F83C1001688B68DB0702D011E00220F7
:1032F00018BD8B6843F001038B602A492A4B09688B
:10330000B1FBF3F101EB410100E0491E00910029FE
:10331000FBD101688B68DB073AD0036C42F20104F1
:10332000A34343F480530364036CDB0500D442647D
:1033300080F83C206FF004020A6001684A6842F09D
:1033400080024A60194949680068C906816801F429
:1033500040110FD0D1B100224168154B41F38021BB
:10336000491C98421CD1DAB1D1B1816841F4800185
:10337000816015E041B10021426842F38022521C75
:1033800071B1002AF1D10BE00121F5E70122E3E759
:10339000016C41F010010164416C41F00101416494
:1033A000002018BD0C00002040420F000023014007
:1033B0000020014078B50024009490F83C20012AB8
:1033C00019D0012280F83C200A6807230568092AE1
:1033D00013D9EE680A3A02EB420293409E43EE6034
:1033E0000B788A680A3B03EB43039A400368DD6865
:1033F0002A43DA6010E0022078BD2E6902EB420217
:1034000093409E432E610B788A6803EB43039A40F6
:1034100003681D692A431A614A681F23072A13D2C9
:1034200005686E6B521E02EB820293409E436E63F0
:103430000B790A885B1E92B203EB83039A40036800
:103440005D6B2A435A6327E005680D2A12D22E6B62
:10345000D21F02EB820293409E432E630B790A88AF
:10346000DB1F92B203EB83039A4003681D6B2A4370
:103470001A6311E0EE6A0D3A02EB820293409E431A
:10348000EE620B790A880D3B92B203EB83039A40FC
:103490000368DD6A2A43DA62164B0568144A9D42C6
:1034A00006D10D68122D03D1556845F4800555608D
:1034B00005689D4218D10B68102B01D0112B13D138
:1034C000536843F400035360096810290CD10A497A
:1034D0000A4A0968B1FBF2F101EB8101490000E001
:1034E000491E00910029FBD180F83C40002078BDA6
:1034F00000230140002001400C00002040420F004A
:1035000070477047704770B50446006806684568A4
:1035100016F0020F05F020012AD049B3216CC9062C
:1035200003D4216C41F400712164816811F0405F83
:1035300017D1217EA9B9C16A11F4700F02D0816838
:1035400049050ED4416821F020014160206C20F42F
:1035500080702064206CC00403D4206C40F0010013
:1035600020642046FFF7CCFF21686FF0120008604E
:1035700016F0040F05F0800132D089B3206CC0062C
:1035800003D4206C40F4005020642068816811F45A
:10359000401F1ED1816B11F4401F02D08168490584
:1035A00017D44168490514D4816811F0405F10D1E7
:1035B000217E71B9416821F080014160206C20F4C6
:1035C00080502064206CC00503D4206C40F00100C2
:1035D00020642046FFF706FE21686FF00C000860AB
:1035E00016F0010F05F040010FD071B1206800689E
:1035F000C0070AD0206C40F480302064204600F0E0
:1036000043F821686FF00100086016F0200F05F004
:1036100080610ED000290CD0606C40F00200606424
:1036200020686FF0200505602046FFF76BFF2068DB
:10363000056070BD70B504004FF0000503D0206C2C
:10364000002610B107E0012070BD204600F01EF8F2
:10365000666484F83C60206CC00610D4206C20F4B2
:10366000885040F0020020642046FFF7E7FB6664C4
:10367000206C20F0020040F00100206400E00125F1
:1036800084F83C60284670BD70470000F0B587B0F4
:10369000044614216846FDF711F9314A2F4F23687B
:1036A00000242F49143A03252E480126BB4222D17B
:1036B0000B6843F480730B60096801F48071059115
:1036C000116841F004011160116801F004010591D5
:1036D000116841F0020111601168029401F00201C9
:1036E00005913221CDE90015694600F0FBFB6946E2
:1036F0001D48009623E01D4FBB422CD10B6843F4BC
:1037000000730B60096801F400710591116841F0C4
:1037100004011160116801F004010591116841F084
:10372000010111601168009601F001010591CDE9D8
:103730000154694600F0D6FB0D4869460095CDE975
:10374000015400F0CFFB00221146122000F03EFD94
:10375000122000F02DFD07B0F0BD00000020014058
:1037600044380240000802400004024000210140A9
:1037700000000240F8B50E4600210446009190F882
:103780003C0013460A46012807D0012084F83C007B
:1037900020688568ED0702D011E00220F8BD856839
:1037A00045F0010585604048404D0068B0FBF5F0EC
:1037B00000EB400000E0401E00900028FBD1206894
:1037C0008568ED0503D5856825F4807585602068DA
:1037D0008568ED075DD0226C40F20165AA4342F492
:1037E000807222644068400505D5206C20F40050AA
:1037F00040F480502064206CC00404D5606C20F03C
:103800000600606400E0616484F83C10A16B294804
:10381000274DC863A16B28480864A16B2748C8647A
:1038200021686FF0220008602068416841F08061E3
:1038300041602068816841F480718160216832466E
:103840004C31A06B00F0EEFA024668681C49C006D5
:10385000206806D0884224D1816811F0405F13D0DF
:103860001FE08842F8D0174B984203D1D1F80433B7
:10387000DB06F1D0144B984213D1D1F8041301F0B8
:103880001F011029E8D30CE0816841F0804181607C
:1038900007E0206C40F010002064606C40F00100F4
:1038A00060641046F8BD00000C00002040420F008C
:1038B00000230140912D0008152E0008FF2D00085F
:1038C00000200140002101400022014070B50400A9
:1038D00003D094F8200010B104E0012070BD204610
:1038E00000F082F82068016841F00101016000F0F9
:1038F000FFFB0546052604E000F0FAFB401B0A2802
:1039000011D820684068C007F6D02068016821F00F
:103910000201016000F0ECFB05460BE000F0E8FB63
:10392000401B0A2806D9606A40F40030606284F8BF
:103930002060D2E7206840688007EFD4207E01280D
:10394000206801683DD021F080010160607E01287F
:103950002068016838D021F040010160A07E012874
:103960002068016833D021F020010160E07E012849
:10397000206801682ED041F010010160207F0128ED
:103980002068016829D021F008010160607F0128CA
:103990002068016824D021F004010160D4E902010B
:1039A0000843D4E90412114308436168491E0843DF
:1039B0002168C86100206062012084F82000002096
:1039C00070BD41F08001C0E741F04001C5E741F022
:1039D0002001CAE721F01001CFE741F00801D4E748
:1039E00041F00401D9E7000010B586B00446142167
:1039F0006846FCF763FF14492068884221D11348C8
:103A00000021026842F000720260006800F000705D
:103A100005900E481038026842F00102026000680A
:103A200000F0010005904FF4C05000900220CDE955
:103A3000010103200390092004906946044800F026
:103A400051FA06B010BD000000640040403802404A
:103A50000000024070B500B3F9B14379012B1ED0CC
:103A6000012646710223037105682C6802F01003D9
:103A700040F6FE729A409443D1E900210A439A40ED
:103A800022432A6001680A68C0249C40A2430A605D
:103A9000067100214171084670BD012070BD0220F1
:103AA00070BD70B5040003D02079002510B105E089
:103AB000012070BD6571204600F008F802202071D9
:103AC000256101202071002070BD000010B586B076
:103AD000044614216846FCF7F1FE1149206888422B
:103AE0001CD110480021026842F0005202600068B8
:103AF00000F0005005900B481038026842F00102B7
:103B00000260006800F00100059030200090032062
:103B1000CDE901016946044800F0E4F906B010BDA2
:103B200000740040403802400000024018B50024F4
:103B3000009440B100680090104431B114300090FE
:103B40000360002018BD012018BD0830F7E770B5EC
:103B500008B34279012A20D0012242710223037165
:103B60000468266801F0100302FA03F52E4326606C
:103B70000029016813D00C6804F470153C249C40A3
:103B8000A54203D14B6843F002034B600271002150
:103B90004171084670BD012070BD022070BD0B68E8
:103BA000C3F383030F2BF1D14B6843F00103ECE720
:103BB0002DE9F84304464FF00009CDF80090634822
:103BC0004FF41651A56D0068B0FBF1F72E6894F81C
:103BD0005C10082000FA01F131420FD021680A6818
:103BE00052070BD50A6822F004020A6094F85C10B0
:103BF0008840A860606D40F00100606594F85C103A
:103C00004FF0010808FA01F0304208D021684969F4
:103C1000090604D5A860606D40F00200606594F864
:103C20005C1004208840304208D021680968890768
:103C300004D5A860606D40F00400606594F85C10E5
:103C400010208840304218D021680968090714D52F
:103C5000A86020680168490304D50068000308D5FE
:103C6000A16C07E00168C90503D4016821F00801CF
:103C70000160216C09B12046884794F85C1020202F
:103C80008840304231D021680968C9062DD5A86026
:103C900094F8350005282068016806D0490347D507
:103CA000006800031DD4616C1CE021F01601016066
:103CB0002068416921F080014161206C08B9A06C45
:103CC00020B12068016821F00801016094F85C10BF
:103CD0003F208840A86084F8358084F83490216DB6
:103CE0001FE0E16B09B120468847606D00282BD0AA
:103CF000606DC00714D0052084F835002068016885
:103D000021F0010101600098401C0090B84203D8E6
:103D100020680068C007F6D184F8358084F83490B4
:103D2000E16C002910D001B02046BDE8F0430847FF
:103D30000168C905D5D4016821F01001016084F83B
:103D4000358084F83490CCE7BDE8F8830C0000207F
:103D50002DE9F041044600F0CBF906465CB10220A3
:103D600084F83500002584F834502068016821F07B
:103D7000010101600DE00120BDE8F08100F0B8F91B
:103D8000801B052805D920206065032084F83500B4
:103D9000F2E720680068C007F0D122681168204867
:103DA0000140D4E901031843D4E9033633431843EF
:103DB00063691843A3691843E3691843236A1843E6
:103DC0000843616A042903D1D4E90B13194308435A
:103DD000106020684069666A20F0070130460E4393
:103DE000012704280CD1A06A0643E06A40B12046AE
:103DF000FFF7D4F820B14020606584F83570BAE749
:103E0000206846612046FFF7B5F894F85C203F2112
:103E100091408160656584F835700020ACE7000052
:103E20003F8010F02DE9F0410446866D90F8340093
:103E3000002501280DD0012084F8340094F8357055
:103E40000020012F07D084F8340002252846BDE861
:103E5000F0810220FBE7022784F835706065204678
:103E6000FFF7C6F894F85C103F208840B0602068E7
:103E7000016841F016010160206C20B120680168E2
:103E800041F0080101602068016841F00101016012
:103E9000DCE7000070B5044600F02AF90546601C16
:103EA00002D004480078044400F022F9401BA042EC
:103EB000FAD370BD00000020B0F5007F03D10249A5
:103EC0000020096848627047F0010020044910B5DD
:103ED0000A68024202D00860FFF7EEFF10BD000042
:103EE000143C01402DE9F84FDFF8BCA10022012568
:103EF00003264FF00F090AF1040BAAF1040E00BFCC
:103F00000B6805FA02F42340A34270D10F7907F041
:103F10000307012F01D0022F16D187684FEA42080C
:103F200006FA08FC27EA0C07D1F80CC00CFA08FCCA
:103F30004CEA070CC0F808C04768A7430C79C4F3E3
:103F4000001494403C4344600C79E443A4070AD035
:103F5000C4684FEA420C06FA0CF7BC438F6807FAB4
:103F60000CF72743C7600C7904F00304022C12D12C
:103F7000D40800EB840CDCF820405707FF0E09FA48
:103F800007F824EA0804D1F8108008FA07F848EA8C
:103F90000408CCF8208004684FEA420C06FA0CF7BB
:103FA000BC430F7907F0030707FA0CF727430760B4
:103FB0004C6814F4403F70D03C4C276847F480476D
:103FC0002760246822F0030704F480440094384CEE
:103FD00007EB040CDCF8084897074FEA177809FA52
:103FE00008F7BC43334FB84202D1002724E054E025
:103FF000314FB84201D101271EE0304FB84201D104
:10400000022719E02E4FB84201D1032714E02D4FAB
:10401000B84201D104270FE02B4FB84201D1052748
:104020000AE02A4FB84201D1062705E0284FB842DE
:1040300001D1072700E0082707FA08F72743CCF843
:104040000878DAF800405746D1F804C09C435FEA8C
:10405000CC2C00D51C433C60DBF800405F46D1F817
:1040600004C09C435FEA8C2C00D51C433C60DEF806
:1040700000407746D1F804C09C435FEA8C3C00D5F1
:104080001C433C60084F083F3C68D1F804C09C4387
:104090005FEACC3C00D51C433C60521C102AFFF464
:1040A0002FAFBDE8F88F0000083C014044380240C3
:1040B00000300140000002400004024000080240BD
:1040C000000C0240001002400014024000180240A0
:1040D000001C0240426921EA02030A4043EA02410D
:1040E000816170470AB1816170470904FBE70000F4
:1040F0000148806870470000000000200248816885
:104100000278114481607047000000200B4810B510
:10411000016841F400710160016841F4806101604F
:10412000016841F480710160032000F06FF80F20F6
:1041300000F006F800F024F8002010BD003C02401A
:1041400070B50D4D04464FF47A712878B1FBF0F04C
:104150000A490968B1FBF0F000F00AFB48B9102CDD
:1041600007D200222146501E00F030F800206C607B
:1041700070BD012070BD0000000000200C00002078
:104180000A4808B5016841F480410160006800F404
:10419000804000900548001F016841F08051016097
:1041A000006800F08050009008BD000044380240D4
:1041B000002809DB00F01F02012191404009800026
:1041C00000F1E020C0F8001170470000F0B40E4B81
:1041D0001B680C46C3F30223C3F10705042D00D965
:1041E0000425191D072901D2002300E0DB1E01264A
:1041F00006FA05F1491E214099409E40761E164060
:104200003143F0BC01F0FBBD0CED00E0064900F0CD
:10421000070208684FF6FF03184040EA0220034AED
:1042200010430860704700000CED00E00000FA0544
:104230002DE9F0470E46050065D0DFF81481D8F867
:104240000000F7B200F00700B04207D288F8007013
:10425000D8F8000000F00700B04254D128683D4C67
:10426000810712D5400703D5206840F4E050206054
:104270002878000703D5206840F46040206020685B
:10428000A96820F0F000084320602878C0072DD0EE
:10429000304968680839012812D0022813D0032851
:1042A00011D00968890700292DDA216821F003015E
:1042B00001432160FFF71CFF814641F2883A0EE07E
:1042C00009688903EFE709688901ECE7FFF710FF48
:1042D000A0EB0901514502D90320BDE8F087206811
:1042E000696800F00C00B0EB810FEFD1D8F8001036
:1042F000404601F00701B14207D90770006800F09D
:104300000700B04201D00120E7E72878400705D533
:104310002068E96820F4E05008432060287800070E
:1043200006D52068296920F4604040EAC100206079
:1043300000F038F82168084AC1F30311515CC84005
:104340000649086006480068FFF7FAFE0020C4E747
:10435000003C02400838024036A300080C00002050
:10436000040000200448054900680968044AC1F3B4
:104370008221515CC84070470C0000200838024080
:1043800046A300080448054900680968044AC1F3C7
:104390004231515CC84070470C0000200838024090
:1043A00046A30008154810B5006810F00C02144828
:1043B00013D04110042A0FD0082A0ED10F4C241F0D
:1043C0002268236802F03F025B0207D52068C0F331
:1043D0008810A0FB010106E0084610BD2168C1F36A
:1043E0008811A1FB00010023FBF794FF2168C1F3B2
:1043F0000141491C4900B0FBF1F010BD08380240F2
:104400000024F4002DE9F84F04006ED02078DFF886
:104410004C93C007A9F104054AD009F104000168D2
:10442000C1F38101012908D00068C0F3810002288E
:104430000AD1D9F80000400206D52868800337D594
:1044400060680028E1D033E06068B0F5803F10D0AC
:10445000B0F5A02F286810D020F48030286028689C
:1044600020F4802028606068A8B1FFF741FE06466E
:104470000DE0286840F48030F4E740F480202860A4
:10448000F7E700BFFFF734FE801B642873D8286865
:104490008003F7D50CE0FFF72BFE064605E000BFD2
:1044A000FFF726FE801B6428F0D828688003F7D425
:1044B0002078DFF8AC8280074FF0000A3ED5A7488D
:1044C000001D016811F00C0F08D00068C0F38100D6
:1044D00002280BD1D9F80000400207D428688007D1
:1044E00016D5E068012800D112E033E1E068B8B1E8
:1044F0000120C8F80000FFF7FBFD064605E000BFFD
:10450000FFF7F6FD801B0228C0D828688007F7D582
:104510002868216920F0F80040EAC10028600DE019
:10452000C8F800A0FFF7E4FD064604E0FFF7E0FD51
:10453000801B02281FD828688007F7D4207800073E
:1045400022D5864F87486169703771B101210160BA
:10455000FFF7CEFD064604E0FFF7CAFD801B0228E8
:1045600009D838688007F7D50EE0C0F800A0FFF73B
:10457000BFFD064605E082E0FFF7BAFD801B02287A
:104580007DD838688007F7D42078400768D5DFF8F1
:10459000CCB100270BF13C0BDBF80000C0000BD4C2
:1045A000DBF8001041F08051CBF80010DBF8000080
:1045B000012700F0805000906B4E3068C00510D489
:1045C000306840F480703060FFF792FD009005E0A5
:1045D000FFF78EFD0099401A022850D83068C005B8
:1045E000F6D55E4EA0686C3601280FD005283068DD
:1045F00010D020F001003060306820F004003060FE
:10460000A068B8B1FFF774FD00900FE0306840F08B
:104610000100F4E740F004003060F7E7FFF768FDC1
:104620000099411A41F28830814266D8306880078B
:10463000F4D50EE0FFF75CFD009007E0FFF758FDB2
:104640000099411A41F28830814256D8306880077B
:10465000F4D42FB1DBF8001021F08051CBF800101A
:10466000A069C8B33D49091D0968C1F38101022948
:104670004AD00228504607D0C8F8600000E03CE06D
:10468000FFF736FD04463BE04746C8F86000FFF7F9
:104690002FFD064605E000BFFFF72AFD801B02281C
:1046A0002BD828688001F7D4D4E907010843A16A10
:1046B0002E4A490802EB0141626A41EA821108432D
:1046C00094F82C1040EA0161C9F800100120386606
:1046D000FFF70EFD044606E03EE000BFFFF708FDD1
:1046E000001B022809D828688001F7D534E000BFF4
:1046F000FFF7FEFC001B022802D90320BDE8F88F5B
:1047000028688001F4D427E00128F7D0D9F8000008
:10471000E26900F4800191421CD1226A00F03F015D
:10472000914217D147F6C071626A0140B1EB821F16
:1047300010D1A26A4FF0FF3300F4403103EB520274
:10474000B1EB024F06D194F82C1000F07060B0EB82
:10475000016F01D00120D1E70020CFE704380240EB
:1047600000004742800E4742007000400000FFFFFB
:1047700010B5401EB0F1807F01D3012010BD4FF075
:10478000E02460610F21601701F039FB0020A06177
:1047900007202061002010BD7047704710B590F8C9
:1047A0003C20012A22D0012280F83C20CA688C6873
:1047B00022F4407222434C6822F4806222430C6847
:1047C00022F4006222430C6922F4805222434C6995
:1047D00022F400522243C969002322F480420A4392
:1047E00001684A6480F83C30002010BD022010BDF2
:1047F00070B590F83C20012A32D0012480F83C406A
:10480000022280F83D2003685A689D6822F07006F5
:104810000A6832435A60134B02689A4214D0B2F1CC
:10482000804F11D0104B9A420ED0104B9A420BD0B1
:104830000F4B9A4208D00F4B9A4205D00E4B9A422A
:1048400002D00E4B9A4204D1496825F080031943E7
:10485000916080F83D40002180F83C10084670BD12
:10486000022070BD0000014000040040000800402C
:10487000000C0040000401400040014000180040CE
:1048800010B50446022249B104290ED0082913D0DC
:1048900094F84500012816D0012010BD94F842007C
:1048A0000128F9D184F842200FE094F84300012850
:1048B000F2D184F8432008E094F844000128EBD1B9
:1048C00084F8442001E084F845200422206800F0A8
:1048D000AAFF2068416C41F40041416411492068FD
:1048E000884214D0B0F1804F11D00F4988420ED0C9
:1048F0000E4988420BD00E49884208D00D498842A3
:1049000005D00D49884202D00C49884204D1816803
:1049100001F00701062903D0016841F0010101609F
:10492000002010BD000001400004004000080040CD
:10493000000C00400004014000400140001800400D
:1049400010B5040003D094F83D0010B107E0012039
:1049500010BD002084F83C00204600F01FF8022023
:1049600084F83D00211D206800F0E8FE012084F855
:10497000460084F83E0084F83F0084F8400084F844
:10498000410084F8420084F8430084F8440084F82D
:10499000450084F83D00002010BD000008B5006807
:1049A000154988420FD11548016841F001010160A5
:1049B0000068002200F00100009011461820FFF767
:1049C00005FC182012E00E49884213D10B48001F45
:1049D000016841F4807101600068002200F4807079
:1049E000009011462D20FFF7F1FB2D20BDE8084077
:1049F000FFF7DEBB08BD0000000001404438024064
:104A00000020004070B5044690F83C0000250128C5
:104A100017D0012684F83C60022084F83D0020680D
:104A2000826822F0770222F47F4282600868502870
:104A300038D00DDC20284FD005DC90B3102811D1E0
:104A40004AE0022070BD302846D040280AD13BE021
:104A500060282FD070280DD0B0F5805F03D0B0F55E
:104A6000005F12D0012584F83D60002084F83C00EE
:104A7000284670BDCB68D1E90121206800F0E0FE36
:104A80002068816841F0770109E0CB68D1E9012114
:104A9000206800F0D5FE2068816841F48041816083
:104AA000E1E719E0CA684968206800F09DFF5021DD
:104AB000206806E0CA684968206800F0A6FF602107
:104AC000206800F0C7FECEE7CA684968206800F099
:104AD0008BFF40212068F4E7226801461046F0E78A
:104AE0002DE9F0410D46040003D094F83D0018B1C3
:104AF00008E00120BDE8F081002084F83C00204659
:104B000000F040F8022084F83D002068816844F2FB
:104B1000070291438160211D206800F00FFE22688A
:104B200090689169166A2B68AF69034340F20330BD
:104B3000814341EA0721A868EF6908434FF6FC4129
:104B40008843E96840EA0720014328692F6A000189
:104B500040EA0730084369686D6926F0AA0646EA0C
:104B60000515294393602268906154F8460B016251
:104B7000012004F81F09E0752076E0762077A07503
:104B80000020B7E770B586B0044614216846FBF7ED
:104B900095FE1E491C4E256800231C4A103902242C
:104BA0001B48B54211D1156845F002051560126821
:104BB00002F0020205920A6842F002020A600968E5
:104BC00001F002010591302113E0124EB54218D1D7
:104BD000156845F004051560126802F0040205929C
:104BE0000A6842F002020A60096801F002010591B8
:104BF000C0210091CDE90143CDE903346946FFF7B7
:104C000071F906B070BD0000000400404038024059
:104C1000000402400008004070B590F83E60044671
:104C200090F83F5090F8423090F84320022021B194
:104C300004290ED0012E1BD114E0012E18D1012B16
:104C400016D184F83E0084F8420001220021206839
:104C500020E0012D0CD1012A0AD184F83F0084F80C
:104C6000430014E0012D03D1012B01D1012A01D011
:104C7000012070BD84F83E0084F83F0084F84200B3
:104C800084F8430001220021206800F0BFFD0122CA
:104C90000421206800F0BAFD2068016841F001019C
:104CA0000160002070BD70472DE9F04104460068A6
:104CB000C66805694FF00007A90713D5B10711D5DC
:104CC000F91E016101202077206880698007204655
:104CD00002D0FFF7E8FF04E000F0BEF8204600F045
:104CE00050F92777680716D5700714D521686FF03B
:104CF00004000861022020772068806910F4407F5A
:104D0000204602D0FFF7CFFF04E000F0A5F82046D0
:104D100000F037F92777280715D5300713D5216814
:104D20006FF008000861042020772068C0698007C0
:104D3000204602D0FFF7B7FF04E000F08DF82046D0
:104D400000F01FF92777E80616D5F00614D521687C
:104D50006FF010000861082020772068C06910F407
:104D6000407F204602D0FFF79EFF04E000F074F879
:104D7000204600F006F92777E80708D0F00706D0AC
:104D800021686FF001000861204600F05FF92806F5
:104D900008D5300606D521686FF0800008612046EE
:104DA000FFF7FAFC680608D5700606D521686FF093
:104DB00040000861204600F04AF9A8060AD5B0066E
:104DC00008D521686FF0200008612046BDE8F04159
:104DD000FFF7E3BCBDE8F08170B586B0044614214E
:104DE0006846FBF76BFD18492068884229D11748AF
:104DF0000024016841F002010160016801F0020134
:104E00000591016841F0010101600068022500F090
:104E1000010005904FF460400090CDE90154012657
:104E2000CDE9034669460A48FFF75CF84FF4E060B5
:104E30000090CDE90154CDE9034669460548FFF7E6
:104E400051F806B070BD000000000140303802404B
:104E50000004024000000240704770B5044690F81C
:104E60003C0000260D4601280FD0012084F83C00AC
:104E70006AB1042A1DD0082A2FD00C2A3FD001265F
:104E8000002084F83C00304670BD022070BD2068D0
:104E900000F0E8FC2068816941F008018161206828
:104EA000816921F004018161206881692A691143C7
:104EB00011E0206800F006FD2068816941F400617E
:104EC00081612068816921F4806181612068816944
:104ED0002A6941EA02218161D2E7206800F028FDB9
:104EE0002068C16941F00801C1612068C16921F0F1
:104EF0000401C1612068C1692A69114311E0206879
:104F000000F04AFD2068C16941F40061C161206878
:104F1000C16921F48061C1612068C1692A6941EADF
:104F20000221C161ACE710B5040003D094F83D0044
:104F300010B107E0012010BD002084F83C0020469D
:104F400000F01EF8022084F83D00211D206800F0CA
:104F5000F5FB012084F8460084F83E0084F83F0009
:104F600084F8400084F8410084F8420084F843004B
:104F700084F8440084F8450084F83D00002010BD0A
:104F80007047704710B50446022249B104290ED07B
:104F9000082913D094F84100012816D0012010BD33
:104FA00094F83E000128F9D184F83E200FE094F8EF
:104FB0003F000128F2D184F83F2008E094F8400037
:104FC0000128EBD184F8402001E084F8412001223F
:104FD000206800F01BFC16492068164A884201D060
:104FE000904203D1436C43F40043436420688842F9
:104FF00013D0B0F1804F10D00F4988420DD00F4927
:1050000088420AD00E49884207D0904205D00D4907
:10501000884202D00C49884204D1816801F007011E
:10502000062903D0016841F001010160002010BD94
:10503000000001400004014000040040000800405E
:10504000000C0040004001400018004070477047CD
:105050007047704770B5040004D094F841000025F3
:1050600010B106E0012070BD84F84050204600F0E9
:1050700023F8242084F841002068C16821F40051FD
:10508000C160204600F080FD2068016921F4904154
:1050900001612068416921F02A0141612068C168ED
:1050A00041F40051C1606564202084F8410084F817
:1050B00042006563002070BD70B586B006461421BD
:1050C0006846FBF7FBFB1F493068884238D11E4811
:1050D0000025016841F400310160006800F40030EF
:1050E000059019481038016841F00101016000681D
:1050F000694600F0010005900C2000900220CDE9E7
:10510000010503200390072004901048FEF7EAFEF3
:10511000104C0F4820604FF00060C4E901054014B6
:10512000C4E9035080106561C4E906502562204639
:105130006562FEF70DFE08B1FDF773FFF463A66329
:1051400006B070BD004400404038024000000240FC
:10515000886002401003002090F84230202B01D0DC
:105160000220704721B11AB10023036300F092BD01
:105170000120704700680349884201D101F0F8BC62
:10518000704700000044004000680349884201D194
:1051900001F0EEBC70470000004400402DE9F843E8
:1051A000044690F84100984616460D46202802D045
:1051B0000220BDE8F88385B17EB100206064212023
:1051C00084F84100FEF794FFA6848146E684A06837
:1051D0002027B0F5805F02D003E00120E9E72069D5
:1051E00010B12E4600250EE000260CE0802120465E
:1051F00000F0A0FDA8B9C6B116F8010B21684860FF
:10520000E08C401EE084E08C4B464FF00002CDF86D
:1052100000800028EAD14FF04001204600F08AFDCE
:1052200040B184F841700320C3E735F8020BC0F3A6
:105230000800E3E784F841700020BAE7FEE70000C9
:10524000F0B58DB00024089409940A942021684692
:105250000B94FBF733FB2E4801252C4905614FF4D5
:1052600080368460C0E90016047680F82040294921
:10527000C0E90A14C561C46080F830404561FEF79A
:10528000D9F908B172B6FEE70E270897CDE909549F
:1052900008A91F48FEF78EF808B172B6FEE7CDE9FF
:1052A00000750425A8040294CDE906608DF8154028
:1052B00004958DF81440694615480394FDF7B4FE33
:1052C00008B172B6FEE70F200090022001906946F7
:1052D0000F48FDF7A9FE08B172B6FEE7082000905E
:1052E0000320019069460A48FDF79EFE08B172B698
:1052F000FEE70B20CDE9000569460548FDF794FE61
:10530000002801D072B6FEE70DB0F0BD00200140CC
:10531000DC0000200100000F7FB500241548009438
:10532000019402941249039401604FF48031C0E962
:1053300001140461047680F820400F49C0E90A1482
:105340000125C561C46080F830404561FEF772F9FF
:1053500008B172B6FEE70095CDE9015469460548EB
:10536000FEF728F8002801D072B6FEE77FBD0000E6
:1053700000210140240100200100000F0C4810B55D
:105380000A4901601021416000218160C160016112
:105390004161017641768176C17601774177FEF7EA
:1053A00095FA002801D072B6FEE710BD00640040F7
:1053B0006C0100202DE9F04186B014216846FBF70E
:1053C0007DFA30480024016841F004010160016861
:1053D00001F004010591016841F08001016001685C
:1053E00001F080010591016841F00101016001684F
:1053F00001F001010591016841F0020101600068BE
:10540000214F00F002004FF400550590002229467C
:105410003846FEF767FEDFF87480AE0000223146A2
:105420004046FEF75FFE00950125CDE9015469462F
:1054300038460394FEF756FDCDE90065CDE90254E8
:1054400069464046FEF74EFD2802CDE90004104DA6
:10545000694628460294FEF745FD681500904FF412
:105460008810CDE9010469462846FEF73BFD00227D
:1054700011461720FEF7AAFE1720FEF799FE06B088
:10548000BDE8F081303802400008024000000240D0
:105490000004024030B595B000240F94109411948C
:1054A000129413941C2168461494FBF707FA2021E8
:1054B00007A8FBF703FA39483749C0E9001420214F
:1054C000816041F26701C0E903140121C0E90514BC
:1054D000FFF736FA08B172B6FEE74FF480500F902E
:1054E0000FA92E48FFF78EFA08B172B6FEE72B48D7
:1054F000FFF719FD08B172B6FEE77025CDE9135428
:1055000013A92648FFF774F908B172B6FEE76020C8
:10551000CDE90004022002900820CDE9030405949F
:10552000002269461D480694FFF797FC08B172B641
:10553000FEE7042269461948FFF78FFC08B172B6EE
:10554000FEE7082269461548FFF787FC08B172B6E6
:10555000FEE742F2CE000095CDE901040C22694637
:105560000E48FFF77AFC08B172B6FEE70794642094
:105570000894CDE909404FF40050CDE90B4007A94C
:1055800006480E94FFF70AF908B172B6FEE7034821
:10559000FFF722FC15B030BD00000140A80100203B
:1055A00010B58CB024216846FBF788F90024164812
:1055B000099414490A94C0E9001442F21071C0E938
:1055C0000241046184610320CDE900040120CDE99A
:1055D00002040494CDE90540079469460A480894FA
:1055E000FFF77EFA08B172B6FEE7099409A90648EA
:1055F0000A94FFF7FDF8002801D072B6FEE70CB060
:1056000010BD000000040040F001002010B58CB077
:1056100024216846FBF752F90024154809941349E0
:105620000A94C0E900144FF6FF71C0E90241046119
:1056300084610120CDE90004CDE902040494CDE9A0
:105640000540079469460A480894FFF749FA08B1EB
:1056500072B6FEE7099409A905480A94FFF7C8F84D
:10566000002801D072B6FEE70CB010BD0008004063
:1056700038020020FEE7FEE770477047FEF73EBDA8
:1056800030B593B030216846FBF718F914210CA807
:10569000FBF714F91D480025016841F080510160B5
:1056A000006800F0805011901948016841F4804171
:1056B00001600068022400F48040119001200390F2
:1056C00010200490009406940820CDE90750A820EB
:1056D000CDE9090404200B906846FEF793FE08B15B
:1056E00072B6FEE70CA90F2081E831004FF4A050FC
:1056F0000F904FF48050109005210CA8FEF798FDF4
:10570000002801D072B6FEE713B030BD4038024029
:10571000007000400248016841F470010160704768
:1057200088ED00E00148FFF7BFBA0000A8010020A3
:105730000148FFF7B9BA000080020020F0B5026806
:10574000274B284D284E294F294C4FF0804C98422A
:1057500009D0604507D0A84205D0B04203D0B84276
:1057600001D0A04204D122F0700E4A6842EA0E0233
:1057700098421BD0604519D0A84217D0B04215D02E
:10578000B84213D0A04211D01A4DA8420ED01A4DE3
:10579000A8420BD0194DA84208D0194DA84205D0F7
:1057A000184DA84202D0184DA84203D122F44075EA
:1057B000CA682A434D6922F080022A438D68C56277
:1057C0000D688562984201D0A04201D10969016348
:1057D000016841F004010160012141610260F0BDF6
:1057E000000001400004004000080040000C0040A0
:1057F00000040140004001400044014000480140D5
:1058000000180040001C00400020004010B501F0CE
:105810001F030121046A99408C430462016A9A4083
:105820001143016210BD10B501F00F030421046A99
:1058300099408C430462016A9A401143016210BD91
:1058400010B5846842EA032224F47F440A432243C9
:10585000826010BD826822F070020A4342F00701A4
:1058600081607047F0B5036A026A22F001020262A9
:1058700042688469124E24F073050C682C4323F0AF
:1058800002058B682B430D4DA84201D0B04205D1D3
:1058900023F00807CB683B4323F00403A84201D060
:1058A000B04205D14D6922F4407215438A692A43FA
:1058B00042608461496841630362F0BD00000140B9
:1058C00000040140F0B5026A036A23F0100303628A
:1058D000436884690D6824F4E64444EA05248D682D
:1058E00022F0200242EA05120F4D104EA84201D0CC
:1058F000B04206D1CF6822F0800242EA071222F0BD
:105900004002A84201D0B04207D14D6923F4406360
:1059100043EA85038D6943EA8503436084614968EE
:1059200081630262F0BD00000000014000040140FC
:10593000F0B5026A036A23F4807303624368C469A2
:1059400022F4007224F073050C68124E2C438D680B
:1059500042EA05220E4DA84201D0B04206D1CF68DE
:1059600022F4006242EA072222F48062A84201D0B7
:10597000B04207D14D6923F4405343EA05138D69C2
:1059800043EA05134360C4614968C1630262F0BD24
:10599000000001400004014030B5046A026A22F4AC
:1059A000805202624268C3690D6823F4E64343EA09
:1059B00005238D6824F4005444EA0534084DA842B8
:1059C00002D0084DA84204D14D6922F4804242EA37
:1059D00085124260C36149680164046230BD000001
:1059E000000001400004014010B5036A046A24F07D
:1059F00001040462846924F0F00444EA021423F0F0
:105A00000A020A438461026210BD10B5036A046A87
:105A100024F010040462846923F0A00324F4704489
:105A200044EA023243EA01118261016210BD70B59D
:105A3000846B2068406994F84110C0F3C0100025C1
:105A4000212904D118B1E584204600F08EF82068A1
:105A5000406994F84210C0F38010222904D118B193
:105A6000E585204600F05AF8606C40F01000606454
:105A70002046FFF7EEFA70BD10B50146806B09684D
:105A800009684FF00002C9052ED4C28501680C31A7
:105A900051E8003F23F4807341E80034002CF5D135
:105AA0000168143151E8003F23F0010341E800345C
:105AB000002CF5D10168143151E8003F23F0400378
:105AC00041E80034002CF5D1202180F84210016B10
:105AD000012909D101680C3151E8003F23F010037E
